:060000000200640202BAD6
:03000B0002029F4F
:0100130032BA
:03001B000202BE20
:200020000000E2FBEAF2802C0000E0FBEAF08024E6B50202EBF62200E2B50202EBF22200C6
:20004000E0B50202EBF02230F6E0A88220F5D3EAC6F582228B822230F6E6A88220F5D980D6
:01006000CFD0
:0300BD00020061DD
:0300610002026533
:2000C0003090FD2095FD2090FD222090FDC2953090FD2090FDD295223090FDA295E433F5EB
:2000E0008222E582900001F0E0FF23540124FF92953090FD2090FDEF2323540124FF929595
:200100003090FD2090FD900001E0FFA2E5E43324FF92953090FD2090FDEFC4540124FF92F6
:20012000953090FD2090FD900001E0FFA2E3E43324FF92953090FD2090FDEF030354012492
:20014000FF92953090FD2090FD900001E0FF03540124FF92953090FD2090FDEF540124FF2C
:2001600092953090FD2090FD3090FDA295500475820122758200223090FD3090FDA295E4DE
:2001800033035480FF2090FD3090FD3090FDA295E433030354C042072090FD3090FD309054
:2001A000FDA295E433C42354E042072090FD3090FD3090FDA295E433C454F042072090FD1D
:2001C0003090FD3090FDA295E433C40354F842072090FD3090FD3090FDA295E43325E0255C
:2001E000E042072090FD3090FD3090FDA295E43325E042072090FD3090FD3090FDA295E4D1
:200200003342072090FDC2953090FD2090FDD2958F8222E582900002F0E0900800F022AF38
:2002200082AE83ADF0FC900003EFF0EEA3F0EDA3F0ECA3F0900003E0FCA3E0FDA3E0FEA36D
:20024000E0FF780079007A007B00C3E89CE99DEA9EEB9F500F08B8000909B900050ABA0047
:20026000E90B80E6227582FF1203217401C0E0740EC0E0120CB8158115811205587414C0E6
:20028000E0740EC0E0120CB815811581D2B51206FAC2B580F743A88043A80143A80422C0AB
:2002A000E0C082C083C0D0900080E02401F0758C03D0D0D083D082D0E03230B2FD3230B325
:0202C000FD320D
:200E0100496E697469616C7A69656420554152540A0D00496E697469616C7A6965642074DE
:170E21006865204C43440A0D00456E642070726F6772616D0A0D009D
:2002C200AF83E582900007F0EFA3F0209907308BFA90000022C299900007E0FEA3E0FF8E73
:2002E200998E828F8322209807308BFA90000022C298AE997F008E828F8322209807308B1B
:20030200FA90000022C298209907308BFA90000022C299859999AE997F008E828F8322E5AD
:1D03220082900009F0E0FF8F8D8F8B758921758780759852D28E438F01438F042279
:20033F003090FD2095FD2090FD222090FDC2953090FD2090FDD295223090FDA295E433F569
:20035F008222E58290000AF0E0FF23540124FF92953090FD2090FDEF2323540124FF92950A
:20037F003090FD2090FD90000AE0FFA2E5E43324FF92953090FD2090FDEFC4540124FF926C
:20039F00953090FD2090FD90000AE0FFA2E3E43324FF92953090FD2090FDEF030354012408
:2003BF00FF92953090FD2090FD90000AE0FF03540124FF92953090FD2090FDEF540124FFA2
:2003DF0092953090FD2090FD3090FDA295500475820122758200223090FD3090FDA295E45D
:2003FF0033035480FF2090FD3090FD3090FDA295E433030354C042072090FD3090FD3090D3
:20041F00FDA295E433C42354E042072090FD3090FD3090FDA295E433C454F042072090FD9B
:20043F003090FD3090FDA295E433C40354F842072090FD3090FD3090FDA295E43325E025DA
:20045F00E042072090FD3090FD3090FDA295E43325E042072090FD3090FD3090FDA295E44F
:20047F003342072090FDC2953090FD2090FDD2958F8222D295D290223090FD2095FD2090CF
:20049F00FD3090FD3090FDA2952090FD3090FD3090FDA2952090FD3090FD3090FDA29520B3
:2004BF0090FD3090FD3090FDA2952090FD3090FD3090FDA2952090FD3090FD3090FDA29523
:2004DF002090FD3090FD3090FDA2952090FD3090FD3090FDA2952090FDC2953090FD2090D0
:0704FF00FDD2957582022277
:200E380000FFFFFFFFFFFF005033E6213469420F11240103800705780200000000000000E9
:200E580000000031400000000000000000000000000000000180A020E02D101060A2004950
:200E7800310000001800000000000000000000000000000000000000000000000000000011
:200E980000000000000000000000000000000000000000000000000000000000000000003A
:20050600E58290000DF0E0900800F022AF82AE83ADF0FC90000EEFF0EEA3F0EDA3F0ECA34F
:20052600F090000EE0FCA3E0FDA3E0FEA3E0FF780079007A007B00C3E89CE99DEA9EEB9F03
:20054600500F08B8000909B900050ABA00E90B80E622C2B4C2979008007401F07C007D00A1
:200566007E007F00C3EC9460ED943DEE9408EF9400500F0CBC00090DBD00050EBE00E50F4B
:2005860080E29008007411F07C007D007E007F00C3EC9460ED943DEE9408EF9400500F0C17
:2005A600BC00090DBD00050EBE00E50F80E2900800743AF0D2979008007455F0C29790089E
:2005C6000074C0F0D297900800740EF0F0C29790080074C1F0D2979008007441F0E4F0C23C
:2005E6009790080074C2F0D2979008007455F0C29790080074C5F0D297900800E4F0F0F017
:20060600F0C29790080074E0F0D297900800740FF0741FF0741CF0740CF0740FF07408F0E9
:200626007448F07498F07437F0740AF07413F07404F07411F0740DF0E4F0C2979008007405
:20064600E1F0D297900800740FF07432F0742EF0740BF0740DF07405F07447F07475F074E6
:2006660037F07406F07410F07403F07424F07420F0E4F0C2979008007436F0D2979008009C
:200686007448F0C2979008007413F0742AF0D297900800E4F0F004F0743FF0C29790080065
:2006A600742BF0D297900800E4F0F004F074DFF0C2979008007429F07451F0D29790080075
:2006C60074FFF07C007D007E007F00C3EC9460ED943DEE9408EF9400500F0CBC00090DBD53
:2006E60000050EBE00E50F80E2C297900800742CF0D29722E590541FFA23232354F8F9EA47
:20070600030349F58323232354C04AF582F0A3E583F022E582900062F0900061E0541FFF35
:20072600900060E0543FFEE4C3CE13CE13A2E0CE13CE13CEFD7C00EF4206EC420590006202
:20074600E0541FC40354F8FCE44206EC42058E048D074307088C828F83EEF0EDA3F022C2F8
:20076600B4C2B57E007F008E048F05C3EC9440ED9401503E7C007D008C028D03C3EA94E05A
:20078600EB94015026900060E4F0900061F0758200C007C006C005C004120719D004D005D0
:1707A600D006D0070CBC00D00D80CD0EBE00B80F80B5D2B4D2B522A6
:2007BD00438F02900065E4F0900064F0900063F043890143A80243A880438810225388EFCC
:2007DD00224388102253A8FC900063E4F0900064F0900065F0F58CF58A4389012290008057
:2007FD00E0FFE06047EF14900080F0900065E02407900065F0FFBF640040E2900065E02451
:20081D009C900065F0900064E0FF0F900064EFF0BF3C0040C8900064E024C4900064F09052
:13083D000063E0FF0F900063EFF080B190006375F00022DA
:0110070000E8
:200850003090FD2095FD2090FD222090FDC2953090FD2090FDD295223090FDA295E433F553
:200870008222E582900066F0E0FF23540124FF92953090FD2090FDEF2323540124FF929598
:200890003090FD2090FD900066E0FFA2E5E43324FF92953090FD2090FDEFC4540124FF92FA
:2008B000953090FD2090FD900066E0FFA2E3E43324FF92953090FD2090FDEF030354012496
:2008D000FF92953090FD2090FD900066E0FF03540124FF92953090FD2090FDEF540124FF30
:2008F00092953090FD2090FD3090FDA295500475820122758200223090FD3090FDA295E447
:2009100033035480FF2090FD3090FD3090FDA295E433030354C042072090FD3090FD3090BC
:20093000FDA295E433C42354E042072090FD3090FD3090FDA295E433C454F042072090FD85
:200950003090FD3090FDA295E433C40354F842072090FD3090FD3090FDA295E43325E025C4
:20097000E042072090FD3090FD3090FDA295E43325E042072090FD3090FD3090FDA295E439
:200990003342072090FDC2953090FD2090FDD2958F8222E582900067F0E0900800F022AF3C
:2009B00082AE83ADF0FC900068EFF0EEA3F0EDA3F0ECA3F0900068E0FCA3E0FDA3E0FEA30C
:2009D000E0FF780079007A007B00C3E89CE99DEA9EEB9F500F08B8000909B900050ABA00B0
:2009F000E90B80E62274B8C0E0740EC0E0120CB8158115817403C0E0740FC0E0120CB81556
:200A1000811581742FC0E0740FC0E0120CB81581158190006C75F000120C5790006CE0FF96
:200A3000BF3FE0120A3880DB7435C0E0740FC0E0120CB8158115817455C0E0740FC0E0120D
:200A50000CB8158115817482C0E0740FC0E0120CB8158115817499C0E0740FC0E0120CB835
:200A70001581158174B0C0E0740FC0E0120CB8158115812290006D75F000120C5790006D5B
:200A9000E0FFBF6302802EBF72028016BF73381207DA74D1C0E0740FC0E0120CB8158115E6
:200AB00081221207DE74E4C0E0740FC0E0120CB815811581221207E274F7C0E0740FC0E024
:200AD000120CB81581158122AFF0AE83E58290006FF0EEA3F0EFA3F090006FE0FDA3E0FE5C
:200AF000A3E0FF8D828E838FF0E4120C9DA3120C9D90006EE0FF7E00C3EE9F4003020BC20B
:200B1000C007C0061202E8AC82D006D007EE600CBC0D028003BC0A04758200228C037D00CA
:200B30008B828D83C007C006C005C004C0031202C2D003D004D005D006D007BC300040057F
:200B5000EC24C650047582FF22C00790006FE0F9A3E0FAA3E0FC89828A838CF0120DE1F81C
:200B7000A3120DE1FF90007EE8F0EFA3F090000AC006C005C004C003C002C001120DC1A8A4
:200B900082AF83D001D002D003D004D005D006EB24D0FBED34FFFDEB28F8ED3FFF89828ADA
:200BB000838CF0E8120C9DA3EF120C9D0ED007020B0875820022AFF0AE83E582900076F0F6
:200BD000EEA3F0EFA3F090007975F000120C57900076E0F508A3E0F509A3E0F50A7B007C42
:200BF00000900079E0FABA0D028042BA0A02803DEB2508F8EC3509F9AF0A888289838FF073
:200C1000EA120C9D0BBB00010C900075E0FE7F00EBB50606ECB50702801390007975F00093
:200C3000C004C003120C57D003D00480B4900072E0FDA3E0FEA3E0FF8D828E838FF0EB124F
:200C50000C9DA3EC020C9DAFF0AE83E58290007AF0EEA3F0EFA3F020980D900080E060F761
:200C7000900080E4F080F090007AE0FDA3E0FEA3E0FFC007C006C0051202FDAB82D005D0F1
:0D0C900006D0078D828E838FF0EB020C9D45
:200EB800202D2D2D2D2D2D2D2057656C636F6D6520746F2054415327732066696E616C20E4
:200ED80070726F6A6563742C20616E206D6F6E69746F7220666F722057696E646F7773202E
:200EF8002D2D2D2D2D2D2D200A0D00092020506C65617320696E707574203F20666F7220F4
:200F180061206C697374206F6620636F6D6D616E64730A0D0A0D000A0D3E3E20000A0D20FD
:200F38002D2D2D20434F4D4D414E442048454C50204D454E55202D2D2D200A0D003F202DEB
:200F58002D20546869732068656C70206D656E752C2073686F77732076616C696420636F54
:200F78006D6D616E64732E0A0D0070202D2D2070617573657320746865204C43442E0A0D60
:200F98000072202D2D20726573756D657320746865204C43440A0D007265736574202D2D21
:200FB800207265737461727473207468652070726F6772616D2E0A0D000A0D54696D6572AB
:200FD8002073746F707065642E0A0D000A0D54696D657220726573756D65642E0A0D000A19
:0F0FF8000D54696D65722072657365740A0D0082
:0110080001E6
:06009300E478FFF6D8FD41
:200071007902E94400601B7A01901007788075A000E493F2A308B8000205A0D9F4DAF2759C
:02009100A0FFCE
:1B0C9D0020F71130F6138883A88220F509F6A8837583002280FEF280F5F02256
:200CB800C00B85810BE50B24FDF8868318868218E493A324DB600C24256005120DA680F08E
:200CD800020DBED2D5E493A3C083C082B4731486F018868318868218120DE16054A3120D69
:200CF800A680F5B4630818E618120DA68043B46417E630E74618E6F42401F608E6F434006F
:200D1800F6742D120DA68033B4782D868318868218E4120D97E583120D96E583120D97E558
:200D380082120D96E582120D9730D5057430120DA6D082D083020CC8B475F6E6FA18E6F963
:200D5800187C107D27120D81FF7CE87D03120D81C4F5837C647D00120D814283E975F00ABA
:200D780084C445F0F582EF80A97B000BC3E99CF9EA9DFA50F61BE92CF9EA3DFAEB22C45452
:200D98000F700320D51FC2D52490D43440D4C083C082C0F0F582E8C0E01202C2D0E0F8D0BC
:090DB800F0D082D08322D00B227E
:200DC100AA83AB828BF090007EE0A4F8A9F08AF0E0A429F98BF0A3E0A429F5838882222269
:200099007800E84400600A790175A000E4F309D8FC787FE84400600C7901900001E4F0A3E5
:0400B900D8FCD9FA9C
:0D00640075810B120DFDE582600302006145
:1C0DE10020F71430F6148883A88220F507E6A88375830022E280F7E49322E02221
:040DFD0075820022D9
:00000001FF
