:0600000002006402032B64
:03000B00020310DD
:0100130032BA
:03001B0002032FAE
:200020000000E2FBEAF2802C0000E0FBEAF08024E6B50202EBF62200E2B50202EBF22200C6
:20004000E0B50202EBF02230F6E0A88220F5D3EAC6F582228B822230F6E6A88220F5D980D6
:01006000CFD0
:0300BD00020061DD
:0300610002028B0D
:2000C0003095FD2096FD2095FD222095FDC2963095FD2095FDD296223095FDA296E433F5C9
:2000E0008222E582900001F0C295900001E0FF23540124FF9296D2953095FD2095FDC295B8
:20010000EF2323540124FF9296D2953095FD2095FDC295900001E0FFA2E5E43324FF92967F
:20012000D2953095FD2095FDC295EFC4540124FF9296D2953095FD2095FDC295900001E097
:20014000FFA2E3E43324FF9296D2953095FD2095FDC295EF0303540124FF9296D2953095C6
:20016000FD2095FDC295900001E0FF03540124FF9296D2953095FD2095FDC295EF540124CC
:20018000FF9296D2953095FD2095FD3095FDA2965004758201222095FD758200223095FD68
:2001A0003095FDA296E433035480FF2095FD3095FD3095FDA296E433030354C042072095BB
:2001C000FD3095FD3095FDA296E433C42354E042072095FD3095FD3095FDA296E433C4544E
:2001E000F042072095FD3095FD3095FDA296E433C40354F842072095FD3095FD3095FDA20D
:2002000096E43325E025E042072095FD3095FD3095FDA296E43325E042072095FD3095FD97
:200220003095FDA296E43342072095FDC2963095FD2095FDD2968F8222E582900002F0E082
:20024000900800F022AF82AE83ADF0FC900003EFF0EEA3F0EDA3F0ECA3F0900003E0FCA3F5
:20026000E0FDA3E0FEA3E0FF780079007A007B00C3E89CE99DEA9EEB9F500F08B8000909A8
:20028000B900050ABA00E90B80E6227582FF1203927499C0E0741BC0E0120FEE15811581AC
:2002A00012085A74ACC0E0741BC0E0120FEE1581158130B3FD1203067E007F008E048F0582
:2002C000C3EC9440ED94015012C007C006120A00D006D0070EBE00E40F80E1120AC87E00DF
:2002E0007F008E048F05C3EC9440ED94015012C007C006120A00D006D0070EBE00E40F805D
:20030000E1120AC380B243A88043A80143A80422C0E0C082C083C0D09000B9E02401F0751B
:130320008C03D0D0D083D082D0E03230B2FD3230B3FD32F1
:201B9900496E697469616C697A656420554152540A0D00496E697469616C7A696564207439
:0A1BB9006865204C4344730A0D00D8
:20033300AF83E582900007F0EFA3F0209907308BFA90000022C299900007E0FEA3E0FF8E01
:20035300998E828F8322209807308BFA90000022C298AE997F008E828F8322209807308BA9
:20037300FA90000022C298209907308BFA90000022C299859999AE997F008E828F8322E53C
:1D03930082900009F0E0FF8F8D8F8B758921758780759852D28E438F01438F042208
:2003B0003095FD2096FD2095FD222095FDC2963095FD2095FDD296223095FDA296E433F5D6
:2003D0008222E58290000AF0C29590000AE0FF23540124FF9296D2953095FD2095FDC295B3
:2003F000EF2323540124FF9296D2953095FD2095FDC29590000AE0FFA2E5E43324FF929684
:20041000D2953095FD2095FDC295EFC4540124FF9296D2953095FD2095FDC29590000AE09B
:20043000FFA2E3E43324FF9296D2953095FD2095FDC295EF0303540124FF9296D2953095D3
:20045000FD2095FDC29590000AE0FF03540124FF9296D2953095FD2095FDC295EF540124D0
:20047000FF9296D2953095FD2095FD3095FDA2965004758201222095FD758200223095FD75
:200490003095FDA296E433035480FF2095FD3095FD3095FDA296E433030354C042072095C8
:2004B000FD3095FD3095FDA296E433C42354E042072095FD3095FD3095FDA296E433C4545B
:2004D000F042072095FD3095FD3095FDA296E433C40354F842072095FD3095FD3095FDA21A
:2004F00096E43325E025E042072095FD3095FD3095FDA296E43325E042072095FD3095FDA5
:200510003095FDA296E43342072095FDC2963095FD2095FDD2968F822290000BE4F0FFBF2B
:2005300080005043EF901BC393FE90000BE02EF0BE1000500A900030C007120333D007EF54
:20055000901BC393FE7D00C007C006C0057443C0E0741CC0E07480C0E0121165E58124FB95
:20057000F581D0070F80B890000BE0FE7F00C006C0077446C0E0741CC0E07480C0E0121111
:2005900065E58124FBF58122D296D295223095FD2096FD2095FD3095FD3095FDA296E433DE
:2005B000035480FF2095FD3095FD3095FDA296E433030354C042072095FD3095FD3095FD37
:2005D000A296E433C42354E042072095FD3095FD3095FDA296E433C454F042072095FD30A0
:2005F00095FD3095FDA296E433C40354F842072095FD3095FD3095FDA296E43325E025E05D
:2006100042072095FD3095FD3095FDA296E43325E042072095FD3095FD3095FDA296E43329
:2006300042072095FDC2963095FD2095FDD296C295BFA102801F7E00C007C006C007C0068B
:200650007457C0E0741CC0E0120FEEE58124FAF5817582022290000CE4F0FFBF7F004003DB
:2006700002075ED295EF901BC393FE90000DF0C295EE23540124FF9296D2953095FD20953B
:20069000FDC29590000DE02323540124FF9296D2953095FD2095FDC29590000DE0A2E5E479
:2006B0003324FF9296D2953095FD2095FDC29590000DE0C4540124FF9296D2953095FD2050
:2006D00095FDC29590000DE0A2E3E43324FF9296D2953095FD2095FDC29590000DE0030308
:2006F000540124FF9296D2953095FD2095FDC29590000DE003540124FF9296D2953095FDCF
:200710002095FDC29590000DE0540124FF9296D2953095FD2095FD3095FDA29640052095D4
:20073000FD802090000CE0FD7E00C005C006747FC0E0741CC0E0120FEEE58124FCF5817547
:20075000820422C2950F90000CEFF002066B901C42E493FFC295EF23540124FF9296D295B9
:200770003095FD2095FDC295EF2323540124FF9296D2953095FD2095FDC295EFA2E5E4330A
:2007900024FF9296D2953095FD2095FDC295EFC4540124FF9296D2953095FD2095FDC29547
:2007B000EFA2E3E43324FF9296D2953095FD2095FDC295EF0303540124FF9296D295309560
:2007D000FD2095FDC295EF03540124FF9296D2953095FD2095FDC295EF540124FF9296D2DE
:1807F000953095FD2095FD3095FDA29640062095FD0206657582002270
:201BC30000FFFFFFFFFFFF005033E6213469420F11240103800705780A0000000000000049
:201BE300000000200000314001010101010101010101010101010F0080A020E02D10106067
:201C0300A200493100000018000000FD00013C01501A000A202020202020000000FC0054CE
:201C23004153204C43440A20202020200000001000000000000000000000000000000098C8
:201C43002558000A0D436865636B73756D3A2025750A0D0025752C28255829206973206E91
:201C63006F742061206D6F6E69746F72207265616420416464726573730A0D004E61636B9F
:101C8300656420696E20726561642025750A0D0004
:20080800E58290000FF0E0900800F022AF82AE83ADF0FC900010EFF0EEA3F0EDA3F0ECA346
:20082800F0900010E0FCA3E0FDA3E0FEA3E0FF780079007A007B00C3E89CE99DEA9EEB9FFC
:20084800500F08B8000909B900050ABA00E90B80E622C2B4C2B5C2979008007401F07C00A2
:200868007D007E007F00C3EC9460ED943DEE9408EF9400500F0CBC00090DBD00050EBE00BD
:20088800E50F80E29008007411F07C007D007E007F00C3EC9460ED943DEE9408EF94005039
:2008A8000F0CBC00090DBD00050EBE00E50F80E2900800743AF0D2979008007455F0C29716
:2008C80090080074C0F0D297900800740EF0F0C29790080074C1F0D2979008007441F0E451
:2008E800F0C29790080074C2F0D2979008007455F0C29790080074C5F0D297900800E4F040
:20090800F0F0F0C29790080074E0F0D297900800740FF0741FF0741CF0740CF0740FF074FC
:2009280008F07448F07498F07437F0740AF07413F07404F07411F0740DF0E4F0C29790087C
:200948000074E1F0D297900800740FF07432F0742EF0740BF0740DF07405F07447F07475D1
:20096800F07437F07406F07410F07403F07424F07420F0E4F0C2979008007436F0D297903B
:2009880008007448F0C2979008007413F0742AF0D297900800E4F0F004F0743FF0C2979060
:2009A8000800742BF0D297900800E4F0F004F074DFF0C2979008007429F07451F0D2979070
:2009C800080074FFF07C007D007E007F00C3EC9460ED943DEE9408EF9400500F0CBC000910
:2009E8000DBD00050EBE00E50F80E2C297900800742CF0D297D2B522E590541FFA23232320
:200A080054F8F9EA030349F58323232354C04AF582F0A3E583F022E582900064F09000634F
:200A2800E0541FFF900062E0543FFEE4C3CE13CE13A2E0CE13CE13CEFD7C00EF4206EC42A0
:200A480005900064E0541FC40354F8FCE44206EC42058E048D074307088C828F83EEF0ED71
:200A6800A3F022C2B4C2B57E007F008E048F05C3EC9440ED9401503E7C007D008C028D03FF
:200A8800C3EA94E0EB94015026900062E4F0900063F0758200C007C006C005C004120A1F46
:200AA800D004D005D006D0070CBC00D00D80CD0EBE00B80F80B5D2B4D2B522D2B5C2B422D0
:050AC800D2B4C2B5220A
:200ACD00438F02900067E4F0900066F0900065F043890143A80243A880438810225388EFB3
:200AED00224388102253A8FC900065E4F0900066F0900067F0F58CF58A438901229000B905
:200B0D00E0FFE06047EF149000B9F0900067E02407900067F0FFBF640040E2900067E024FE
:200B2D009C900067F0900066E0FF0F900066EFF0BF3C0040C8900066E024C4900066F09035
:130B4D000065E0FF0F900065EFF080B190006575F00022C1
:011DED0000F5
:200B60003095FD2096FD2095FD222095FDC2963095FD2095FDD296223095FDA296E433F51E
:200B80008222E582900068F0C295900068E0FF23540124FF9296D2953095FD2095FDC2953F
:200BA000EF2323540124FF9296D2953095FD2095FDC295900068E0FFA2E5E43324FF92966E
:200BC000D2953095FD2095FDC295EFC4540124FF9296D2953095FD2095FDC295900068E086
:200BE000FFA2E3E43324FF9296D2953095FD2095FDC295EF0303540124FF9296D29530951C
:200C0000FD2095FDC295900068E0FF03540124FF9296D2953095FD2095FDC295EF540124BA
:200C2000FF9296D2953095FD2095FD3095FDA2965004758201222095FD758200223095FDBD
:200C40003095FDA296E433035480FF2095FD3095FD3095FDA296E433030354C04207209510
:200C6000FD3095FD3095FDA296E433C42354E042072095FD3095FD3095FDA296E433C454A3
:200C8000F042072095FD3095FD3095FDA296E433C40354F842072095FD3095FD3095FDA262
:200CA00096E43325E025E042072095FD3095FD3095FDA296E43325E042072095FD3095FDED
:200CC0003095FDA296E43342072095FDC2963095FD2095FDD2968F8222E582900069F0E071
:200CE000900800F022AF82AE83ADF0FC90006AEFF0EEA3F0EDA3F0ECA3F090006AE0FCA37D
:200D0000E0FDA3E0FEA3E0FF780079007A007B00C3E89CE99DEA9EEB9F500F08B8000909FD
:200D2000B900050ABA00E90B80E6227493C0E0741CC0E0120FEE1581158174DEC0E0741C21
:200D4000C0E0120FEE15811581740AC0E0741DC0E0120FEE1581158190006E75F000120FAA
:200D60008D90006EE0FFBF3FE0120D6E80DB7410C0E0741DC0E0120FEE158115817430C04F
:200D8000E0741DC0E0120FEE15811581745DC0E0741DC0E0120FEE158115817474C0E0742E
:200DA0001DC0E0120FEE15811581748BC0E0741DC0E0120FEE158115812290006F75F000AA
:200DC000120F8D90006FE0FFBF6302802EBF72028016BF7338120AEA74ACC0E0741DC0E08B
:200DE000120FEE1581158122120AEE74BFC0E0741DC0E0120FEE1581158122120AF274D2D7
:200E0000C0E0741DC0E0120FEE1581158122AFF0AE83E582900071F0EEA3F0EFA3F09000E9
:200E200071E0FDA3E0FEA3E0FF8D828E838FF0E4120FD3A3120FD3900070E0FF7E00C3EE45
:200E40009F4003020EF8C007C006120359AC82D006D007EE600CBC0D028003BC0A04758269
:200E600000228C037D008B828D83C007C006C005C004C003120333D003D004D005D006D0E4
:200E800007BC30004005EC24C650047582FF22C007900071E0F9A3E0FAA3E0FC89828A8323
:200EA0008CF0121B79F8A3121B79FF900080E8F0EFA3F090000AC006C005C004C003C002F8
:200EC000C0011210F7A882AF83D001D002D003D004D005D006EB24D0FBED34FFFDEB28F8E5
:200EE000ED3FFF89828A838CF0E8120FD3A3EF120FD30ED007020E3E75820022AFF0AE83B5
:200F0000E582900078F0EEA3F0EFA3F090007B75F000120F8D900078E0F508A3E0F509A348
:200F2000E0F50A7B007C0090007BE0FABA0D028042BA0A02803DEB2508F8EC3509F9AF0AFC
:200F4000888289838FF0EA120FD30BBB00010C900077E0FE7F00EBB50606ECB507028013FE
:200F600090007B75F000C004C003120F8DD003D00480B4900074E0FDA3E0FEA3E0FF8D82FE
:200F80008E838FF0EB120FD3A3EC020FD3AFF0AE83E58290007CF0EEA3F0EFA3F020980D74
:200FA0009000B9E060F79000B9E4F080F090007CE0FDA3E0FEA3E0FFC007C006C0051203D1
:130FC0006EAB82D005D006D0078D828E838FF0EB020FD393
:201C9300202D2D2D2D2D2D2D2057656C636F6D6520746F2054415327732066696E616C20FB
:201CB30070726F6A6563742C20616E206D6F6E69746F7220666F722057696E646F77732045
:201CD3002D2D2D2D2D2D2D200A0D00092020506C65617320696E707574203F20666F72200B
:201CF30061206C697374206F6620636F6D6D616E64730A0D0A0D000A0D3E3E20000A0D2015
:201D13002D2D2D20434F4D4D414E442048454C50204D454E55202D2D2D200A0D003F202D02
:201D33002D20546869732068656C70206D656E752C2073686F77732076616C696420636F6B
:201D53006D6D616E64732E0A0D0070202D2D2070617573657320746865204C43442E0A0D77
:201D73000072202D2D20726573756D657320746865204C43440A0D007265736574202D2D38
:201D9300207265737461727473207468652070726F6772616D2E0A0D000A0D54696D6572C2
:201DB3002073746F707065642E0A0D000A0D54696D657220726573756D65642E0A0D000A30
:0F1DD3000D54696D65722072657365740A0D0099
:011DEE0001F3
:06009300E478FFF6D8FD41
:200071007902E94400601B7A01901DED78B975A000E493F2A308B8000205A0D9F4DAF27570
:02009100A0FFCE
:1B0FD30020F71130F6138883A88220F509F6A8837583002280FEF280F5F0221D
:200FEE00C00B85810BE50B24FDF8868318868218E493A324DB600C242560051210DC80F01C
:20100E000210F4D2D5E493A3C083C082B4731486F018868318868218121B796054A312104D
:20102E00DC80F5B4630818E6181210DC8043B46417E630E74618E6F42401F608E6F43400C6
:20104E00F6742D1210DC8033B4782D868318868218E41210CDE5831210CCE5831210CDE53B
:20106E00821210CCE5821210CD30D50574301210DCD082D083020FFEB475F6E6FA18E6F946
:20108E00187C107D271210B7FF7CE87D031210B7C4F5837C647D001210B74283E975F00AD6
:2010AE0084C445F0F582EF80A97B000BC3E99CF9EA9DFA50F61BE92CF9EA3DFAEB22C45419
:2010CE000F700320D51FC2D52490D43440D4C083C082C0F0F582E8C0E0120333D0E0F8D011
:0910EE00F0D082D08322D00B2245
:2010F700AA83AB828BF0900080E0A4F8A9F08AF0E0A429F98BF0A3E0A429F583888222222E
:200099007800E84400600A790175A000E4F309D8FC78B8E84400600C7901900001E4F0A3AC
:0400B900D8FCD9FA9C
:20111700C00B85810B7E008E83120333D00B22AFF0AE83E582900083F0EEA3F0EFA3F0903B
:201137000083E0FDA3E0FEA3E0FF900082E0FC900097E4F0A3F0A3F090009AEDF0EEA3F09E
:20115700EFA3F090009DECF0901117021269C00BE581F50B24FBFF900097E4F0A3F0A3F048
:20117700E50B24FBF890009AE6F008E6A3F008E6A3F090009DEFF0901117121269D00B2201
:20119700E582900093F0E0FF900089E0C0E0A3E0C0E0A3E0C0E01211B2800D900087E0C0E7
:2011B700E0A3E0C0E08F8222158115811581900091E02401F0A3E03400F022E582900094B6
:2011D700F0E02430FF24C6500D74072FFF900086E060034307208F82021197E582900095DB
:2011F700F0E0FFC4540FF582C0071211D2D00753070F8F820211D2E582900096F090008CE0
:20121700E0FCA3E0FDA3E0FEA3E0FF900090E0FB900096E0FA7920EB2BF516EF23540145F7
:2012370016FBEC2CFCED33FDEE33FEEF33FFC3EB9A4007EBC39AFB43040119E970D9900020
:201257008CECF0EDA3F0EEA3F0EFA3F0900090EBF022AF83E58290009EF0EFA3F090009E08
:20127700E0FEA3E0FF900087EEF0EFA3F0900097E0FDA3E0FEA3E0FF900089EDF0EEA3F002
:20129700EFA3F0900091E4F0A3F090009AE0FDA3E0FEA3E0FF8D828E838FF0121B79FC9052
:2012B700009A74012DF0E43EA3F0EFA3F0EC7003021B55BC25028003021B4D9000A0E4F00F
:2012D7009000A1F09000A2F09000A3F09000A4F09000A5F09000A6F09000A7F09000A9F0D2
:2012F7009000AAF0A3F09000AC14F0A3F090009AE0FDA3E0FEA3E0FF8D828E838FF0121B71
:2013170079FBA3AD82AE8390009AEDF0EEA3F0EFA3F09000B0EBF0BB25088B821211970269
:2013370012A1BB30005003021402EB24C650030214029000ACE0F50CA3E0F50D74FFB50C77
:2013570063B50D60C005C006C0079000AAE0FAA3E0FF900080EAF0EFA3F090000AC005C07E
:20137700031210F7AE82AF83D003D0058B057A00ED2EFEEA3FFFEE24D0FEEF34FFFF900054
:20139700AAEEF0EFA3F0D007D006D0059000AAE0F5F0A3E045F0600302130F9000A17401C6
:2013B700F002130FC005C006C007900080E50CF0E50DA3F090000AC006C005C0031210F739
:2013D700AA82AF83D003D005D0067E00EB2AFAEE3FFFEA24D0FAEF34FFFF9000ACEAF0EF63
:2013F700A3F0D007D006D00502130F9000B0E0FBBB2E2FC005C006C0079000ACE0FAA3E07F
:20141700FFBAFF05BFFF028009D007D006D00502130FD007D006D0059000ACE4F0A3F002E2
:20143700130FBB61004014EB2485400F9000B074DF5BF09000867401F08005900086E4F058
:201457009000B0E0FBBB20028075BB2B028067BB2D028059BB4202806FBB4302807CBB440D
:20147700030216F9BB460302171FBB480302130FBB49030216F9BB4A0302130FBB4C02800E
:2014970050BB4F03021707BB5003021667BB53028077BB540302130FBB550302170FBB58A0
:2014B70003021717BB5A0302130F0217279000A07401F002130F9000A27401F002130F9062
:2014D70000A37401F002130F9000A57401F002130F9000A67401F002130F9000A5E0600EC9
:2014F70090009DE014F9F09000B0E7F0800F90009DE024FEFFF08F019000B0E7F09000B020
:20151700E0F58212119702173690009DE024FDFFF08F018705098706098707191990008CA0
:20153700EDF0EEA3F0EFA3F08D828E838FF0121B6185820C85830D9000ACE0FAA3E0FDBA0F
:20155700FF0DBDFF0A9000ACE50CF0E50DA3F09000A0E0704B9000AAE0FAA3E0FDC3E50CED
:201577009AE50D9D503A9000AAEAC3950CF0ED950DA3F09000AAE0FAA3E0FD8A068D071A35
:20159700BAFF011DEE4F6010758220C005C002121197D002D00580E39000AAEAF0EDA3F0BA
:2015B7009000ACE0F50FA3E0F51090008CE0FAA3E0FDA3E0FF8A828D838FF0121B79F50E30
:2015D700603CC3E4950F74808510F063F08095F0502C150F74FFB50F021510850E82121106
:2015F7009790008CE0FAA3E0FDA3E0FF0ABA00010D90008CEAF0EDA3F0EFA3F080AC9000BF
:20161700A0E070030217369000AAE0FEA3E0FFC3E50C9EE50D9F40030217369000AAEEC377
:20163700950CF0EF950DA3F09000AAE0FEA3E0FF8E028F051EBEFF011FEA4D700302172E34
:20165700758220C007C006121197D006D00780E090009DE024FDFDF08D018711098712091C
:201677008713191990008CE511F0E512A3F0E513A3F090008EE0FDBD800040089000B0743C
:2016970043F08020BD600040089000B07450F08013BD400040089000B07449F0800690002C
:2016B700B07458F09000B0E0FDF582C00512119775823A1211977582301211977582781247
:2016D7001197D005BD4902800EBD5002800990008DE0F5821211F290008CE0F5821211F237
:2016F700803D9000A47401F09000A9740AF0802F9000A97408F080279000A9740AF0801F95
:201717009000A97410F080179000A77401F0800F8B8212119780089000AAEEF0EFA3F090CA
:2017370000A7E0607190009DE024FCFFF08F01870309870509870609870719191990008CDB
:20175700EBF0EDA3F0EEA3F0EFA3F090008C74E2F0741DA3F07480A3F090008CE0F511A362
:20177700E0F512A3E0F51374012511FAE43512FBAF1390008CEAF0EBA3F0EFA3F085118245
:201797008512838513F0121B79FF70030212A18F8212119780C39000A9E0F50FE070030243
:2017B70012A19000A5E0604790009DE014F9F087067D007B007A0090008CEEF0EDA3F0EB35
:2017D700A3F0EAA3F09000A4E0600302187C90008CE0FAA3E0A3E0A3E07B007D007E009050
:2017F700008CEAF0EBA3F0EDA3F0EEA3F080769000A6E0602890009DE024FCFEF08E018728
:201817000209870309870509870619191990008CEAF0EBA3F0EDA3F0EEA3F0804890009D3C
:20183700E024FEFEF08E01870509870619EE3395E0FBFA90008CEDF0EEA3F0EBA3F0EAA3C7
:20185700F09000A4E0701E90008CE0FAA3E0FBA3E0A3E07D007E0090008CEAF0EBA3F0ED09
:20187700A3F0EEA3F09000A4E0603D90008CE0A3E0A3E0A3E030E72B90008CE0FAA3E0FB51
:20189700A3E0FDA3E0FEC3E49AFAE49BFBE49DFDE49EFE90008CEAF0EBA3F0EDA3F0EEA3F8
:2018B700F080059000A4E4F09000A87401F07514B6751500E4F50CF50D900090E4F0850FBF
:2018D7008212120E9000A8E07033900090E0C454F0F511900090E0C4540F4511F511851458
:2018F70082851583E0FFE5114207851482851583EFF0151474FFB514021515800B900090C1
:20191700E0851482851583F0050CE4B50C02050D9000A8E0B40100E433F090008CE0FAA371
:20193700E0FBA3E0FEA3E0FFEA4B4E4F708B9000B7E514F0E515A3F09000AEE50CF0E50D17
:20195700A3F09000AAE0F5F0A3E045F070099000AA7401F0E4A3F09000A1E0FFE0703E9069
:2019770000A0E070389000AAE0FDA3E0FE9000AEE0FB0B7A00C3EB9DEA9E5019758220C0DF
:2019970007C006C005121197D005D006D0071DBDFF011E80D89000AAEDF0EEA3F09000A446
:2019B700E0602075822DC007121197D0079000AAE024FFFDA3E034FFFE9000AAEDF0EEA39E
:2019D700F080569000AEE0F5F0A3E045F0604A9000A2E0602075822BC007121197D0079029
:2019F70000AAE024FFFDA3E034FFFE9000AAEDF0EEA3F080249000A3E0601E758220C007C7
:201A1700121197D0079000AAE024FFFDA3E034FFFE9000AAEDF0EEA3F09000A0E070449044
:201A370000AEE0F514A3E0F5159000AAE0FAA3E0FBC0078A068B071ABAFF011BC3E5149EA7
:201A5700E5159FD007504FEF60047E3080027E208E82C007C003C002121197D002D003D0B4
:201A77000780CE9000AAE0FEA3E0FF9000AEE0F514A3E0F515C3E5149EE5159F500F9000CA
:201A9700AAEEC39514F0EF9515A3F080119000AAE4F0A3F080089000AAEAF0EBA3F0900033
:201AB700B7E0FEA3E0FF9000AEE0F514A3E0F515AA14AD15151474FFB514021515EA4D609C
:201AD700449000A8E0B40100E433F09000A8E070130EBE00010F8E828F83E0C4540F9000A7
:201AF70090F0800E8E828F83E0FD53050F900090EDF0900090E0F582C007C0061211D2D095
:201B170006D00780AB9000A0E070030212A19000AAE0FEA3E0FF8E038F051EBEFF011FEBC9
:201B37004D70030212A1758220C007C006121197D006D00780E08C821211970212A19000A1
:0A1B570091E0FEA3E08E82F58322E8
:0B1DE2003C4E4F20464C4F41543E0049
:181B6100AA82AB83121B796003A380F8C3E5829AF582E5839BF5832216
:0D006400758116121B95E582600302006194
:1C1B790020F71430F6148883A88220F507E6A88375830022E280F7E49322E0227B
:041B95007582002233
:00000001FF
