:060000000200540202F3AD
:03000B000202D816
:200010000000E2FBEAF2802C0000E0FBEAF08024E6B50202EBF62200E2B50202EBF22200D6
:20003000E0B50202EBF02230F6E0A88220F5D3EAC6F582228B822230F6E6A88220F5D980E6
:01005000CFE0
:0300AD00020051FD
:0300510002025553
:2000B0003090FD2095FD2090FD222090FDC2953090FD2090FDD295223090FDA295E433F5FB
:2000D0008222E582900001F0E0FF23540124FF92953090FD2090FDEF2323540124FF9295A5
:2000F0003090FD2090FD900001E0FFA2E5E43324FF92953090FD2090FDEFC4540124FF9207
:20011000953090FD2090FD900001E0FFA2E3E43324FF92953090FD2090FDEF0303540124A2
:20013000FF92953090FD2090FD900001E0FF03540124FF92953090FD2090FDEF540124FF3C
:2001500092953090FD2090FD3090FDA295500475820122758200223090FD3090FDA295E4EE
:2001700033035480FF2090FD3090FD3090FDA295E433030354C042072090FD3090FD309064
:20019000FDA295E433C42354E042072090FD3090FD3090FDA295E433C454F042072090FD2D
:2001B0003090FD3090FDA295E433C40354F842072090FD3090FD3090FDA295E43325E0256C
:2001D000E042072090FD3090FD3090FDA295E43325E042072090FD3090FD3090FDA295E4E1
:2001F0003342072090FDC2953090FD2090FDD2958F8222E582900002F0E0908000F022AFD1
:2002100082AE83ADF0FC900003EFF0EEA3F0EDA3F0ECA3F0900003E0FCA3E0FDA3E0FEA37D
:20023000E0FF780079007A007B00C3E89CE99DEA9EEB9F500F08B8000909B900050ABA0057
:20025000E90B80E6227582FF12035312058A745BC0E0740EC0E0120D12158115819000098C
:20027000E4F0900007E0FF900008E0FE900009E0FD900064EEF0900065EDF08F82C007C0FC
:2002900006C005120776D005D006D00790000774022FF0E0FFBF20CA900007E4F0900008BB
:2002B00074022EF0E0FFBF40B9900008E4F090000974022DF0E0FFBF20A8900009E4F08018
:2002D000A143A88043A80122C0E0C082C083C0D0900084E02401F0758C03D0D0D083D082ED
:0402F000D0E03232F6
:200E5B00496E697469616C7A69656420746865204C43440A0D00456E642070726F677261D4
:040E7B006D0A0D00EF
:2002F400AF83E58290000AF0EFA3F0209907308BFA90000022C29990000AE0FEA3E0FF8E3B
:20031400998E828F8322209807308BFA90000022C298AE997F008E828F8322209807308BE8
:20033400FA90000022C298209907308BFA90000022C299859999AE997F008E828F8322E57B
:1D0354008290000CF0E0FF8F8D8F8B758921758780759852D28E438F01438F042244
:200371003090FD2095FD2090FD222090FDC2953090FD2090FDD295223090FDA295E433F537
:200391008222E58290000DF0E0FF23540124FF92953090FD2090FDEF2323540124FF9295D5
:2003B1003090FD2090FD90000DE0FFA2E5E43324FF92953090FD2090FDEFC4540124FF9237
:2003D100953090FD2090FD90000DE0FFA2E3E43324FF92953090FD2090FDEF0303540124D3
:2003F100FF92953090FD2090FD90000DE0FF03540124FF92953090FD2090FDEF540124FF6D
:2004110092953090FD2090FD3090FDA295500475820122758200223090FD3090FDA295E42A
:2004310033035480FF2090FD3090FD3090FDA295E433030354C042072090FD3090FD3090A0
:20045100FDA295E433C42354E042072090FD3090FD3090FDA295E433C454F042072090FD69
:200471003090FD3090FDA295E433C40354F842072090FD3090FD3090FDA295E43325E025A8
:20049100E042072090FD3090FD3090FDA295E43325E042072090FD3090FD3090FDA295E41D
:2004B1003342072090FDC2953090FD2090FDD2958F8222D295D290223090FD2095FD20909D
:2004D100FD3090FD3090FDA2952090FD3090FD3090FDA2952090FD3090FD3090FDA2952081
:2004F10090FD3090FD3090FDA2952090FD3090FD3090FDA2952090FD3090FD3090FDA295F1
:200511002090FD3090FD3090FDA2952090FD3090FD3090FDA2952090FDC2953090FD20909D
:07053100FDD2957582022244
:200E7F0000FFFFFFFFFFFF005033E6213469420F11240103800000780200000000000000AE
:200E9F000000003140000000000000000000000000000000000000000000000000000000C2
:200EBF00000000000000000000000000000000000000000000000000000000000000000013
:200EDF000000000000000000000000000000000000000000000000000000000000000000F3
:20053800E582900010F0E0908000F022AF82AE83ADF0FC900011EFF0EEA3F0EDA3F0ECA39F
:20055800F0900011E0FCA3E0FDA3E0FEA3E0FF780079007A007B00C3E89CE99DEA9EEB9FCE
:20057800500F08B8000909B900050ABA00E90B80E622C2B4C2979080007401F07C007D00F7
:200598007E007F00C3EC9460ED943DEE9408EF9400500F0CBC00090DBD00050EBE00E50F19
:2005B80080E29080007411F07C007D007E007F00C3EC9460ED943DEE9408EF9400500F0C6D
:2005D800BC00090DBD00050EBE00E50F80E2908000743AF0D2979080007455F0C297908004
:2005F8000074C0F0D297908000740EF0F0C29790800074C1F0D2979080007441F0E4F0C2A2
:200618009790800074C2F0D2979080007455F0C29790800074C5F0D297908000E4F0F0F004
:20063800F0C29790800074E0F0D297908000740FF0741FF0741CF0740CF0740FF07408F0C7
:200658007448F07498F07437F0740AF07413F07404F07411F0740DF0E4F0C297908000745B
:20067800E1F0D297908000740FF07432F0742EF0740BF0740DF07405F07447F07475F0743C
:2006980037F07406F07410F07403F07424F07420F0E4F0C2979080007436F0D2979080007A
:2006B8007448F0C2979080007413F0742AF0D297908000E4F0F004F0743FF0C297908000CB
:2006D800742BF0D297908000E4F0F004F074DFF0C2979080007429F07451F0D297908000DB
:2006F80074E6F07C007D007E007F00C3EC9460ED943DEE9408EF9400500F0CBC00090DBD3A
:2007180000050EBE00E50F80E2C297908000742CF0D29722C2B4C297908000742CF0D2973E
:20073800AF9053071F7E008F04EEC42354E0CCC423CC6CCC54E0CC6CFDEF4204EE4205EF56
:20075800C40354F8FEE44204EE42058C068D074307808E828F83ECF0EDA3F0D2B422E58294
:20077800900066F0900065E0541FFF900064E0543FFEE42354E0CEC423CE6ECE54E0CE6E65
:20079800FD7C00EF4206EC4205900066E0541FC40354F8FCE44206EC42058E048D07430737
:2007B800808C828F83EEF0EDA3F022C2B47E007F008E048F05C3EC9440ED9401503E7C0059
:2007D8007D008C028D03C3EA94E0EB94015026900064E4F0900065F0758200C007C006C05E
:1F07F80005C004120776D004D005D006D0070CBC00D00D80CD0EBE00B80F80B5D2B422D2
:20081700438F02900069E4F0900068F0900067F043890143A80243A880438810225388EF65
:20083700224388102253A8FC900067E4F0900068F0900069F0F58CF58A43890122900084EC
:20085700E0FFE06047EF14900084F0900069E02407900069F0FFBF640040E2900069E024E6
:200877009C900069F0900068E0FF0F900068EFF0BF3C0040C8900068E024C4900068F090E4
:130897000067E0FF0F900067EFF080B190006775F0002274
:01104E0000A1
:2008AA003090FD2095FD2090FD222090FDC2953090FD2090FDD295223090FDA295E433F5F9
:2008CA008222E58290006AF0E0FF23540124FF92953090FD2090FDEF2323540124FF92953A
:2008EA003090FD2090FD90006AE0FFA2E5E43324FF92953090FD2090FDEFC4540124FF929C
:20090A00953090FD2090FD90006AE0FFA2E3E43324FF92953090FD2090FDEF030354012437
:20092A00FF92953090FD2090FD90006AE0FF03540124FF92953090FD2090FDEF540124FFD1
:20094A0092953090FD2090FD3090FDA295500475820122758200223090FD3090FDA295E4EC
:20096A0033035480FF2090FD3090FD3090FDA295E433030354C042072090FD3090FD309062
:20098A00FDA295E433C42354E042072090FD3090FD3090FDA295E433C454F042072090FD2B
:2009AA003090FD3090FDA295E433C40354F842072090FD3090FD3090FDA295E43325E0256A
:2009CA00E042072090FD3090FD3090FDA295E43325E042072090FD3090FD3090FDA295E4DF
:2009EA003342072090FDC2953090FD2090FDD2958F8222E58290006BF0E0908000F022AF66
:200A0A0082AE83ADF0FC90006CEFF0EEA3F0EDA3F0ECA3F090006CE0FCA3E0FDA3E0FEA3A9
:200A2A00E0FF780079007A007B00C3E89CE99DEA9EEB9F500F08B8000909B900050ABA0055
:200A4A00E90B80E62274FFC0E0740EC0E0120D1215811581744AC0E0740FC0E0120D1215B7
:200A6A008115817476C0E0740FC0E0120D121581158190007075F000120CB1900070E0FF38
:200A8A00BF3FE0120A9280DB747CC0E0740FC0E0120D1215811581749CC0E0740FC0E01270
:200AAA000D121581158174C9C0E0740FC0E0120D121581158174E0C0E0740FC0E0120D123C
:200ACA001581158174F7C0E0740FC0E0120D12158115812290007175F000120CB1900071FD
:200AEA00E0FFBF6302802EBF72028016BF73381208347418C0E07410C0E0120D121581158E
:200B0A008122120838742BC0E07410C0E0120D12158115812212083C743EC0E07410C0E028
:200B2A00120D121581158122AFF0AE83E582900073F0EEA3F0EFA3F0900073E0FDA3E0FE9E
:200B4A00A3E0FF8D828E838FF0E4120CF7A3120CF7900072E0FF7E00C3EE9F4003020C1C9D
:200B6A00C007C00612031AAC82D006D007EE600CBC0D028003BC0A04758200228C037D003D
:200B8A008B828D83C007C006C005C004C0031202F4D003D004D005D006D007BC30004005F3
:200BAA00EC24C650047582FF22C007900073E0F9A3E0FAA3E0FC89828A838CF0120E3BF863
:200BCA00A3120E3BFF900082E8F0EFA3F090000AC006C005C004C003C002C001120E1BA890
:200BEA0082AF83D001D002D003D004D005D006EB24D0FBED34FFFDEB28F8ED3FFF89828A80
:200C0A00838CF0E8120CF7A3EF120CF70ED007020B6275820022AFF0AE83E58290007AF089
:200C2A00EEA3F0EFA3F090007D75F000120CB190007AE0F508A3E0F509A3E0F50A7B007C85
:200C4A000090007DE0FABA0D028042BA0A02803DEB2508F8EC3509F9AF0A888289838FF014
:200C6A00EA120CF70BBB00010C900079E0FE7F00EBB50606ECB50702801390007D75F000D7
:200C8A00C004C003120CB1D003D00480B4900076E0FDA3E0FEA3E0FF8D828E838FF0EB1297
:200CAA000CF7A3EC020CF7AFF0AE83E58290007EF0EEA3F0EFA3F020980D900084E060F74B
:200CCA00900084E4F080F090007EE0FDA3E0FEA3E0FFC007C006C00512032FAB82D005D05C
:0D0CEA0006D0078D828E838FF0EB020CF791
:200EFF00202D2D2D2D2D2D2D2057656C636F6D6520746F2054415327732066696E616C209D
:200F1F0070726F6A6563742C20616E206D6F6E69746F7220666F722057696E646F777320E6
:200F3F002D2D2D2D2D2D2D200A0D00092020506C65617320696E707574203F20666F7220AC
:200F5F0061206C697374206F6620636F6D6D616E64730A0D0A0D000A0D3E3E20000A0D20B6
:200F7F002D2D2D20434F4D4D414E442048454C50204D454E55202D2D2D200A0D003F202DA4
:200F9F002D20546869732068656C70206D656E752C2073686F77732076616C696420636F0D
:200FBF006D6D616E64732E0A0D0070202D2D2070617573657320746865204C43442E0A0D19
:200FDF000072202D2D20726573756D657320746865204C43440A0D007265736574202D2DDA
:200FFF00207265737461727473207468652070726F6772616D2E0A0D000A0D54696D657264
:20101F002073746F707065642E0A0D000A0D54696D657220726573756D65642E0A0D000AD1
:0F103F000D54696D65722072657365740A0D003A
:01104F00019F
:06008300E478FFF6D8FD51
:200061007902E94400601B7A0190104E788475A000E493F2A308B8000205A0D9F4DAF27561
:02008100A0FFDE
:1B0CF70020F71130F6138883A88220F509F6A8837583002280FEF280F5F022FC
:200D1200C00B85810BE50B24FDF8868318868218E493A324DB600C24256005120E0080F0D8
:200D3200020E18D2D5E493A3C083C082B4731486F018868318868218120E3B6054A3120E57
:200D52000080F5B4630818E618120E008043B46417E630E74618E6F42401F608E6F434005F
:200D7200F6742D120E008033B4782D868318868218E4120DF1E583120DF0E583120DF1E595
:200D920082120DF0E582120DF130D5057430120E00D082D083020D22B475F6E6FA18E6F99F
:200DB200187C107D27120DDBFF7CE87D03120DDBC4F5837C647D00120DDB4283E975F00A52
:200DD20084C445F0F582EF80A97B000BC3E99CF9EA9DFA50F61BE92CF9EA3DFAEB22C454F8
:200DF2000F700320D51FC2D52490D43440D4C083C082C0F0F582E8C0E01202F4D0E0F8D030
:090E1200F0D082D08322D00B2223
:200E1B00AA83AB828BF0900082E0A4F8A9F08AF0E0A429F98BF0A3E0A429F583888222220A
:200089007800E84400600A790175A000E4F309D8FC7883E84400600C7901900001E4F0A3F1
:0400A900D8FCD9FAAC
:0D00540075810B120E57E58260030200510A
:1C0E3B0020F71430F6148883A88220F507E6A88375830022E280F7E49322E022C6
:040E5700758200227E
:00000001FF
