:060000000200640202D5BB
:03000B000202BA34
:0100130032BA
:03001B000202D905
:200020000000E2FBEAF2802C0000E0FBEAF08024E6B50202EBF62200E2B50202EBF22200C6
:20004000E0B50202EBF02230F6E0A88220F5D3EAC6F582228B822230F6E6A88220F5D980D6
:01006000CFD0
:0300BD00020061DD
:0300610002026533
:2000C0003095FD2096FD2095FD222095FDC2963095FD2095FDD296223095FDA296E433F5C9
:2000E0008222E582900001F0E0FF23540124FF92963095FD2095FDEF2323540124FF929689
:200100003095FD2095FD900001E0FFA2E5E43324FF92963095FD2095FDEFC4540124FF92E1
:20012000963095FD2095FD900001E0FFA2E3E43324FF92963095FD2095FDEF03035401247C
:20014000FF92963095FD2095FD900001E0FF03540124FF92963095FD2095FDEF540124FF16
:2001600092963095FD2095FD3095FDA296500475820122758200223095FD3095FDA296E4C2
:2001800033035480FF2095FD3095FD3095FDA296E433030354C042072095FD3095FD309535
:2001A000FDA296E433C42354E042072095FD3095FD3095FDA296E433C454F042072095FD07
:2001C0003095FD3095FDA296E433C40354F842072095FD3095FD3095FDA296E43325E02541
:2001E000E042072095FD3095FD3095FDA296E43325E042072095FD3095FD3095FDA296E4B1
:200200003342072095FDC2963095FD2095FDD2968F8222E582900002F0E0900800F022AF27
:2002200082AE83ADF0FC900003EFF0EEA3F0EDA3F0ECA3F0900003E0FCA3E0FDA3E0FEA36D
:20024000E0FF780079007A007B00C3E89CE99DEA9EEB9F500F08B8000909B900050ABA0047
:20026000E90B80E6227582FF12033C7443C0E0741BC0E0120F981581158112051C7456C093
:20028000E0741BC0E0120F9815811581120521E58270F91208387473C0E0741BC0E0120F39
:2002A000981581158130B3FD1202B01209DA80FB43A88043A80143A80422C0E0C082C083D9
:1D02C000C0D09000B8E02401F0758C03D0D0D083D082D0E03230B2FD3230B3FD3206
:201B4300496E697469616C697A656420554152540A0D00417474656D7074696E6720746F79
:201B63002073656E6420454449442E2E2E0A0D00496E697469616C7A6965642074686520CA
:061B83004C43440A0D0072
:2002DD00AF83E582900007F0EFA3F0209907308BFA90000022C299900007E0FEA3E0FF8E58
:2002FD00998E828F8322209807308BFA90000022C298AE997F008E828F8322209807308B00
:20031D00FA90000022C298209907308BFA90000022C299859999AE997F008E828F8322E592
:1D033D0082900009F0E0FF8F8D8F8B758921758780759852D28E438F01438F04225E
:20035A003095FD2096FD2095FD222095FDC2963095FD2095FDD296223095FDA296E433F52C
:20037A008222E58290000AF0E0FF23540124FF92963095FD2095FDEF2323540124FF9296E3
:20039A003095FD2095FD90000AE0FFA2E5E43324FF92963095FD2095FDEFC4540124FF923C
:2003BA00963095FD2095FD90000AE0FFA2E3E43324FF92963095FD2095FDEF0303540124D7
:2003DA00FF92963095FD2095FD90000AE0FF03540124FF92963095FD2095FDEF540124FF71
:2003FA0092963095FD2095FD3095FDA296500475820122758200223095FD3095FDA296E426
:20041A0033035480FF2095FD3095FD3095FDA296E433030354C042072095FD3095FD309598
:20043A00FDA296E433C42354E042072095FD3095FD3095FDA296E433C454F042072095FD6A
:20045A003095FD3095FDA296E433C40354F842072095FD3095FD3095FDA296E43325E025A4
:20047A00E042072095FD3095FD3095FDA296E43325E042072095FD3095FD3095FDA296E414
:20049A003342072095FDC2963095FD2095FDD2968F822290000BE4F0FFBF80005043EF90EE
:2004BA001B8993FE90000BE02EF0BE1000500A900030C0071202DDD007EF901B8993FE7DAC
:2004DA0000C007C006C0057409C0E0741CC0E07480C0E012110FE58124FBF581D0070F803C
:2004FA00B890000BE0FE7F00C006C007740CC0E0741CC0E07480C0E012110FE58124FBF515
:20051A008122D296D295223095FD2096FD2095FD3095FD3095FDA296E433035480FF2095A8
:20053A00FD3095FD3095FDA296E433030354C042072095FD3095FD3095FDA296E433C42302
:20055A0054E042072095FD3095FD3095FDA296E433C454F042072095FD3095FD3095FDA256
:20057A0096E433C40354F842072095FD3095FD3095FDA296E43325E025E042072095FD309E
:20059A0095FD3095FDA296E43325E042072095FD3095FD3095FDA296E43342072095FDC20E
:2005BA00963095FD2095FDD296BFA003D38001C39200500320001B7E00C007C006741DC0BA
:2005DA00E0741CC0E0120F98E58124FCF581758202222095FDC2963095FD2095FDD296300B
:2005FA0095FD3095FDA296E433035480FF2095FD3095FD3095FDA296E433030354C0420780
:20061A002095FD3095FD3095FDA296E433C42354E042072095FD3095FD3095FDA296E43352
:20063A00C454F042072095FD3095FD3095FDA296E433C40354F842072095FD3095FD309535
:20065A00FDA296E43325E025E042072095FD3095FD3095FDA296E43325E042072095FD302C
:20067A0095FD3095FDA296E43342072095FDC2963095FD2095FDD296EF6013743BC0E07469
:20069A001CC0E0120F9815811581758203222095FDC2963095FD2095FDD2967F00BF7F00E0
:2006BA004003020760EF901B8993FE90000CF0EE23540124FF92963095FD2095FD90000C73
:2006DA00E02323540124FF92963095FD2095FD90000CE0A2E5E43324FF92963095FD2095EA
:2006FA00FD90000CE0C4540124FF92963095FD2095FD90000CE0A2E3E43324FF9296309567
:20071A00FD2095FD90000CE00303540124FF92963095FD2095FD90000CE003540124FF92F1
:20073A00963095FD2095FD90000CE0540124FF92963095FD2095FD3095FDA29650047582C0
:20075A0004220F0206B7901C08E493FF23540124FF92963095FD2095FDEF2323540124FF7D
:20077A0092963095FD2095FDEFA2E5E43324FF92963095FD2095FDEFC4540124FF929630F4
:20079A0095FD2095FDEFA2E3E43324FF92963095FD2095FDEF0303540124FF92963095FD5A
:2007BA002095FDEF03540124FF92963095FD2095FDEF540124FF92963095FD2095FD30959F
:0C07DA00FDA29640030206B575820022C5
:201B890000FFFFFFFFFFFF005033E6213469420F11240103800705780A0000000000000083
:201BA900000000200000314001010101010101010101010101010F0080A020E02D101060A1
:201BC900A200493100000018000000FD00013C01501A000A202020202020000000FC005409
:201BE9004153204C43440A2020202020000000100000000000000000000000000000009803
:201C09002558000A0D436865636B73756D3A2025750A0D002575206973206E6F7420612041
:201C29006D6F6E69746F7220416464726573730A0D004D6F6E69746F72206973206E6F7441
:121C49002072656164696E672066726F6D20300A0D0054
:2007E600E58290000EF0E0900800F022AF82AE83ADF0FC90000FEFF0EEA3F0EDA3F0ECA36B
:20080600F090000FE0FCA3E0FDA3E0FEA3E0FF780079007A007B00C3E89CE99DEA9EEB9F1F
:20082600500F08B8000909B900050ABA00E90B80E622C2B4C2979008007401F07C007D00BE
:200846007E007F00C3EC9460ED943DEE9408EF9400500F0CBC00090DBD00050EBE00E50F68
:2008660080E29008007411F07C007D007E007F00C3EC9460ED943DEE9408EF9400500F0C34
:20088600BC00090DBD00050EBE00E50F80E2900800743AF0D2979008007455F0C2979008BB
:2008A6000074C0F0D297900800740EF0F0C29790080074C1F0D2979008007441F0E4F0C259
:2008C6009790080074C2F0D2979008007455F0C29790080074C5F0D297900800E4F0F0F034
:2008E600F0C29790080074E0F0D297900800740FF0741FF0741CF0740CF0740FF07408F007
:200906007448F07498F07437F0740AF07413F07404F07411F0740DF0E4F0C2979008007422
:20092600E1F0D297900800740FF07432F0742EF0740BF0740DF07405F07447F07475F07403
:2009460037F07406F07410F07403F07424F07420F0E4F0C2979008007436F0D297900800B9
:200966007448F0C2979008007413F0742AF0D297900800E4F0F004F0743FF0C29790080082
:20098600742BF0D297900800E4F0F004F074DFF0C2979008007429F07451F0D29790080092
:2009A60074FFF07C007D007E007F00C3EC9460ED943DEE9408EF9400500F0CBC00090DBD70
:2009C60000050EBE00E50F80E2C297900800742CF0D29722E590541FFA23232354F8F9EA64
:2009E600030349F58323232354C04AF582F0A3E583F022E582900063F0900062E0541FFF51
:200A0600900061E0543FFEE4C3CE13CE13A2E0CE13CE13CEFD7C00EF4206EC42059000631D
:200A2600E0541FC40354F8FCE44206EC42058E048D074307088C828F83EEF0EDA3F022C215
:200A4600B4C2B57E007F008E048F05C3EC9440ED9401503E7C007D008C028D03C3EA94E077
:200A6600EB94015026900061E4F0900062F0758200C007C006C005C0041209F9D004D00509
:170A8600D006D0070CBC00D00D80CD0EBE00B80F80B5D2B4D2B522C3
:200A9D00438F02900066E4F0900065F0900064F043890143A80243A880438810225388EFE6
:200ABD00224388102253A8FC900064E4F0900065F0900066F0F58CF58A438901229000B839
:200ADD00E0FFE06047EF149000B8F0900066E02407900066F0FFBF640040E2900066E02433
:200AFD009C900066F0900065E0FF0F900065EFF0BF3C0040C8900065E024C4900065F0906B
:130B1D000064E0FF0F900064EFF080B190006475F00022F4
:011DB500002D
:200B30003095FD2096FD2095FD222095FDC2963095FD2095FDD296223095FDA296E433F54E
:200B50008222E582900067F0E0FF23540124FF92963095FD2095FDEF2323540124FF9296A8
:200B70003095FD2095FD900067E0FFA2E5E43324FF92963095FD2095FDEFC4540124FF9201
:200B9000963095FD2095FD900067E0FFA2E3E43324FF92963095FD2095FDEF03035401249C
:200BB000FF92963095FD2095FD900067E0FF03540124FF92963095FD2095FDEF540124FF36
:200BD00092963095FD2095FD3095FDA296500475820122758200223095FD3095FDA296E448
:200BF00033035480FF2095FD3095FD3095FDA296E433030354C042072095FD3095FD3095BB
:200C1000FDA296E433C42354E042072095FD3095FD3095FDA296E433C454F042072095FD8C
:200C30003095FD3095FDA296E433C40354F842072095FD3095FD3095FDA296E43325E025C6
:200C5000E042072095FD3095FD3095FDA296E43325E042072095FD3095FD3095FDA296E436
:200C70003342072095FDC2963095FD2095FDD2968F8222E582900068F0E0900800F022AF47
:200C900082AE83ADF0FC900069EFF0EEA3F0EDA3F0ECA3F0900069E0FCA3E0FDA3E0FEA327
:200CB000E0FF780079007A007B00C3E89CE99DEA9EEB9F500F08B8000909B900050ABA00CD
:200CD000E90B80E622745BC0E0741CC0E0120F981581158174A6C0E0741CC0E0120F98154C
:200CF00081158174D2C0E0741CC0E0120F981581158190006D75F000120F3790006DE0FF3C
:200D1000BF3FE0120D1880DB74D8C0E0741CC0E0120F981581158174F8C0E0741CC0E01204
:200D30000F98158115817425C0E0741DC0E0120F9815811581743CC0E0741DC0E0120F9847
:200D5000158115817453C0E0741DC0E0120F98158115812290006E75F000120F3790006EFF
:200D7000E0FFBF6302802EBF72028016BF7338120ABA7474C0E0741DC0E0120F981581158C
:200D90008122120ABE7487C0E0741DC0E0120F981581158122120AC2749AC0E0741DC0E036
:200DB000120F981581158122AFF0AE83E582900070F0EEA3F0EFA3F0900070E0FDA3E0FE94
:200DD000A3E0FF8D828E838FF0E4120F7DA3120F7D90006FE0FF7E00C3EE9F4003020EA27E
:200DF000C007C006120303AC82D006D007EE600CBC0D028003BC0A04758200228C037D00CC
:200E10008B828D83C007C006C005C004C0031202DDD003D004D005D006D007BC3000400581
:200E3000EC24C650047582FF22C007900070E0F9A3E0FAA3E0FC89828A838CF0121B23F8E8
:200E5000A3121B23FF90007FE8F0EFA3F090000AC006C005C004C003C002C0011210A1A88D
:200E700082AF83D001D002D003D004D005D006EB24D0FBED34FFFDEB28F8ED3FFF89828AF7
:200E9000838CF0E8120F7DA3EF120F7D0ED007020DE875820022AFF0AE83E582900077F06A
:200EB000EEA3F0EFA3F090007A75F000120F37900077E0F508A3E0F509A3E0F50A7B007C7A
:200ED0000090007AE0FABA0D028042BA0A02803DEB2508F8EC3509F9AF0A888289838FF08F
:200EF000EA120F7D0BBB00010C900076E0FE7F00EBB50606ECB50702801390007A75F000CC
:200F1000C004C003120F37D003D00480B4900073E0FDA3E0FEA3E0FF8D828E838FF0EB1288
:200F30000F7DA3EC020F7DAFF0AE83E58290007BF0EEA3F0EFA3F020980D9000B8E060F77F
:200F50009000B8E4F080F090007BE0FDA3E0FEA3E0FFC007C006C005120318AB82D005D0B9
:0D0F700006D0078D828E838FF0EB020F7D7F
:201C5B00202D2D2D2D2D2D2D2057656C636F6D6520746F2054415327732066696E616C2033
:201C7B0070726F6A6563742C20616E206D6F6E69746F7220666F722057696E646F7773207D
:201C9B002D2D2D2D2D2D2D200A0D00092020506C65617320696E707574203F20666F722043
:201CBB0061206C697374206F6620636F6D6D616E64730A0D0A0D000A0D3E3E20000A0D204D
:201CDB002D2D2D20434F4D4D414E442048454C50204D454E55202D2D2D200A0D003F202D3B
:201CFB002D20546869732068656C70206D656E752C2073686F77732076616C696420636FA4
:201D1B006D6D616E64732E0A0D0070202D2D2070617573657320746865204C43442E0A0DAF
:201D3B000072202D2D20726573756D657320746865204C43440A0D007265736574202D2D70
:201D5B00207265737461727473207468652070726F6772616D2E0A0D000A0D54696D6572FA
:201D7B002073746F707065642E0A0D000A0D54696D657220726573756D65642E0A0D000A68
:0F1D9B000D54696D65722072657365740A0D00D1
:011DB600012B
:06009300E478FFF6D8FD41
:200071007902E94400601B7A01901DB578B875A000E493F2A308B8000205A0D9F4DAF275A9
:02009100A0FFCE
:1B0F7D0020F71130F6138883A88220F509F6A8837583002280FEF280F5F02273
:200F9800C00B85810BE50B24FDF8868318868218E493A324DB600C2425600512108680F0C8
:200FB80002109ED2D5E493A3C083C082B4731486F018868318868218121B236054A3121050
:200FD8008680F5B4630818E6181210868043B46417E630E74618E6F42401F608E6F43400C9
:200FF800F6742D1210868033B4782D868318868218E4121077E583121076E583121077E5EA
:2010180082121076E58212107730D5057430121086D082D083020FA8B475F6E6FA18E6F9F4
:20103800187C107D27121061FF7CE87D03121061C4F5837C647D001210614283E975F00A2E
:2010580084C445F0F582EF80A97B000BC3E99CF9EA9DFA50F61BE92CF9EA3DFAEB22C4546F
:201078000F700320D51FC2D52490D43440D4C083C082C0F0F582E8C0E01202DDD0E0F8D0BE
:09109800F0D082D08322D00B229B
:2010A100AA83AB828BF090007FE0A4F8A9F08AF0E0A429F98BF0A3E0A429F5838882222285
:200099007800E84400600A790175A000E4F309D8FC78B7E84400600C7901900001E4F0A3AD
:0400B900D8FCD9FA9C
:2010C100C00B85810B7E008E831202DDD00B22AFF0AE83E582900082F0EEA3F0EFA3F090EA
:2010E1000082E0FDA3E0FEA3E0FF900081E0FC900096E4F0A3F0A3F0900099EDF0EEA3F0F9
:20110100EFA3F090009CECF09010C1021213C00BE581F50B24FBFF900096E4F0A3F0A3F04D
:20112100E50B24FBF8900099E6F008E6A3F008E6A3F090009CEFF09010C1121213D00B2206
:20114100E582900092F0E0FF900088E0C0E0A3E0C0E0A3E0C0E012115C800D900086E0C096
:20116100E0A3E0C0E08F8222158115811581900090E02401F0A3E03400F022E5829000930E
:20118100F0E02430FF24C6500D74072FFF900085E060034307208F82021141E58290009489
:2011A100F0E0FFC4540FF582C00712117CD00753070F8F8202117CE582900095F090008BE4
:2011C100E0FCA3E0FDA3E0FEA3E0FF90008FE0FB900095E0FA7920EB2BF516EF2354014550
:2011E10016FBEC2CFCED33FDEE33FEEF33FFC3EB9A4007EBC39AFB43040119E970D9900077
:201201008BECF0EDA3F0EEA3F0EFA3F090008FEBF022AF83E58290009DF0EFA3F090009D62
:20122100E0FEA3E0FF900086EEF0EFA3F0900096E0FDA3E0FEA3E0FF900088EDF0EEA3F05B
:20124100EFA3F0900090E4F0A3F0900099E0FDA3E0FEA3E0FF8D828E838FF0121B23FC9000
:20126100009974012DF0E43EA3F0EFA3F0EC7003021AFFBC25028003021AF790009FE4F015
:201281009000A0F09000A1F09000A2F09000A3F09000A4F09000A5F09000A6F09000A8F030
:2012A1009000A9F0A3F09000AB14F0A3F0900099E0FDA3E0FEA3E0FF8D828E838FF0121BCA
:2012C10023FBA3AD82AE83900099EDF0EEA3F0EFA3F09000AFEBF0BB25088B82121141026E
:2012E100124BBB300050030213ACEB24C650030213AC9000ABE0F50CA3E0F50D74FFB50CD3
:2013010063B50D60C005C006C0079000A9E0FAA3E0FF90007FEAF0EFA3F090000AC005C0D6
:20132100031210A1AE82AF83D003D0058B057A00ED2EFEEA3FFFEE24D0FEEF34FFFF900000
:20134100A9EEF0EFA3F0D007D006D0059000A9E0F5F0A3E045F060030212B99000A0740176
:20136100F00212B9C005C006C00790007FE50CF0E50DA3F090000AC006C005C0031210A13D
:20138100AA82AF83D003D005D0067E00EB2AFAEE3FFFEA24D0FAEF34FFFF9000ABEAF0EFBA
:2013A100A3F0D007D006D0050212B99000AFE0FBBB2E2FC005C006C0079000ABE0FAA3E02E
:2013C100FFBAFF05BFFF028009D007D006D0050212B9D007D006D0059000ABE4F0A3F00291
:2013E10012B9BB61004014EB2485400F9000AF74DF5BF09000857401F08005900085E4F009
:201401009000AFE0FBBB20028075BB2B028067BB2D028059BB4202806FBB4302807CBB4464
:20142100030216A3BB46030216C9BB48030212B9BB49030216A3BB4A030212B9BB4C028015
:2014410050BB4F030216B1BB5003021611BB53028077BB54030212B9BB55030216B9BB5851
:20146100030216C1BB5A030212B90216D190009F7401F00212B99000A17401F00212B9906D
:2014810000A27401F00212B99000A47401F00212B99000A57401F00212B99000A4E0600E28
:2014A10090009CE014F9F09000AFE7F0800F90009CE024FEFFF08F019000AFE7F09000AF7B
:2014C100E0F5821211410216E090009CE024FDFFF08F018705098706098707191990008BA6
:2014E100EDF0EEA3F0EFA3F08D828E838FF0121B0B85820C85830D9000ABE0FAA3E0FDBABD
:20150100FF0DBDFF0A9000ABE50CF0E50DA3F090009FE0704B9000A9E0FAA3E0FDC3E50C46
:201521009AE50D9D503A9000A9EAC3950CF0ED950DA3F09000A9E0FAA3E0FD8A068D071A8D
:20154100BAFF011DEE4F6010758220C005C002121141D002D00580E39000A9EAF0EDA3F067
:201561009000ABE0F50FA3E0F51090008BE0FAA3E0FDA3E0FF8A828D838FF0121B23F50EDE
:20158100603CC3E4950F74808510F063F08095F0502C150F74FFB50F021510850E8212115C
:2015A1004190008BE0FAA3E0FDA3E0FF0ABA00010D90008BEAF0EDA3F0EFA3F080AC90006D
:2015C1009FE070030216E09000A9E0FEA3E0FFC3E50C9EE50D9F40030216E09000A9EEC37F
:2015E100950CF0EF950DA3F09000A9E0FEA3E0FF8E028F051EBEFF011FEA4D70030216D8E3
:20160100758220C007C006121141D006D00780E090009CE024FDFDF08D01871109871209C9
:201621008713191990008BE511F0E512A3F0E513A3F090008DE0FDBD800040089000AF7495
:2016410043F08020BD600040089000AF7450F08013BD400040089000AF7449F08006900084
:20166100AF7458F09000AFE0FDF582C00512114175823A12114175823012114175827812A1
:201681001141D005BD4902800EBD5002800990008CE0F58212119C90008BE0F58212119C91
:2016A100803D9000A37401F09000A8740AF0802F9000A87408F080279000A8740AF0801FEF
:2016C1009000A87410F080179000A67401F0800F8B8212114180089000A9EEF0EFA3F0907A
:2016E10000A6E0607190009CE024FCFFF08F01870309870509870609870719191990008B35
:20170100EBF0EDA3F0EEA3F0EFA3F090008B74AAF0741DA3F07480A3F090008BE0F511A3F2
:20172100E0F512A3E0F51374012511FAE43512FBAF1390008BEAF0EBA3F0EFA3F08511829C
:201741008512838513F0121B23FF700302124B8F8212114180C39000A8E0F50FE07003029C
:20176100124B9000A4E0604790009CE014F9F087067D007B007A0090008BEEF0EDA3F0EBE4
:20178100A3F0EAA3F09000A3E0600302182690008BE0FAA3E0A3E0A3E07B007D007E0090FE
:2017A100008BEAF0EBA3F0EDA3F0EEA3F080769000A5E0602890009CE024FCFEF08E018781
:2017C1000209870309870509870619191990008BEAF0EBA3F0EDA3F0EEA3F0804890009C95
:2017E100E024FEFEF08E01870509870619EE3395E0FBFA90008BEDF0EEA3F0EBA3F0EAA31F
:20180100F09000A3E0701E90008BE0FAA3E0FBA3E0A3E07D007E0090008BEAF0EBA3F0ED62
:20182100A3F0EEA3F09000A3E0603D90008BE0A3E0A3E0A3E030E72B90008BE0FAA3E0FBAA
:20184100A3E0FDA3E0FEC3E49AFAE49BFBE49DFDE49EFE90008BEAF0EBA3F0EDA3F0EEA34F
:20186100F080059000A3E4F09000A77401F07514B5751500E4F50CF50D90008FE4F0850F19
:20188100821211B89000A7E0703390008FE0C454F0F51190008FE0C4540F4511F511851408
:2018A10082851583E0FFE5114207851482851583EFF0151474FFB514021515800B90008F18
:2018C100E0851482851583F0050CE4B50C02050D9000A7E0B40100E433F090008BE0FAA3CA
:2018E100E0FBA3E0FEA3E0FFEA4B4E4F708B9000B6E514F0E515A3F09000ADE50CF0E50D70
:20190100A3F09000A9E0F5F0A3E045F070099000A97401F0E4A3F09000A0E0FFE0703E90C2
:20192100009FE070389000A9E0FDA3E0FE9000ADE0FB0B7A00C3EB9DEA9E5019758220C038
:2019410007C006C005121141D005D006D0071DBDFF011E80D89000A9EDF0EEA3F09000A3F4
:20196100E0602075822DC007121141D0079000A9E024FFFDA3E034FFFE9000A9EDF0EEA34C
:20198100F080569000ADE0F5F0A3E045F0604A9000A1E0602075822BC007121141D00790D7
:2019A10000A9E024FFFDA3E034FFFE9000A9EDF0EEA3F080249000A2E0601E758220C00720
:2019C100121141D0079000A9E024FFFDA3E034FFFE9000A9EDF0EEA3F090009FE0704490F4
:2019E10000ADE0F514A3E0F5159000A9E0FAA3E0FBC0078A068B071ABAFF011BC3E5149E00
:201A0100E5159FD007504FEF60047E3080027E208E82C007C003C002121141D002D003D060
:201A21000780CE9000A9E0FEA3E0FF9000ADE0F514A3E0F515C3E5149EE5159F500F900022
:201A4100A9EEC39514F0EF9515A3F080119000A9E4F0A3F080089000A9EAF0EBA3F090008C
:201A6100B6E0FEA3E0FF9000ADE0F514A3E0F515AA14AD15151474FFB514021515EA4D60F4
:201A8100449000A7E0B40100E433F09000A7E070130EBE00010F8E828F83E0C4540F9000FF
:201AA1008FF0800E8E828F83E0FD53050F90008FEDF090008FE0F582C007C00612117CD044
:201AC10006D00780AB90009FE0700302124B9000A9E0FEA3E0FF8E038F051EBEFF011FEB78
:201AE1004D700302124B758220C007C006121141D006D00780E08C8212114102124B900050
:0A1B010090E0FEA3E08E82F583223F
:0B1DAA003C4E4F20464C4F41543E0081
:181B0B00AA82AB83121B236003A380F8C3E5829AF582E5839BF58322C2
:0D006400758120121B3FE5826003020061E0
:1C1B230020F71430F6148883A88220F507E6A88375830022E280F7E49322E022D1
:041B3F007582002289
:00000001FF
