:060000000200640202B3DD
:03000B0002029856
:0100130032BA
:03001B000202CB13
:200020000000E2FBEAF2802C0000E0FBEAF08024E6B50202EBF62200E2B50202EBF22200C6
:20004000E0B50202EBF02230F6E0A88220F5D3EAC6F582228B822230F6E6A88220F5D980D6
:01006000CFD0
:0300BD00020061DD
:0300610002026533
:2000C0003090FD2095FD2090FD222090FDC2953090FD2090FDD295223090FDA295E433F5EB
:2000E0008222E582900001F0E0FF23540124FF92953090FD2090FDEF2323540124FF929595
:200100003090FD2090FD900001E0FFA2E5E43324FF92953090FD2090FDEFC4540124FF92F6
:20012000953090FD2090FD900001E0FFA2E3E43324FF92953090FD2090FDEF030354012492
:20014000FF92953090FD2090FD900001E0FF03540124FF92953090FD2090FDEF540124FF2C
:2001600092953090FD2090FD3090FDA295500475820122758200223090FD3090FDA295E4DE
:2001800033035480FF2090FD3090FD3090FDA295E433030354C042072090FD3090FD309054
:2001A000FDA295E433C42354E042072090FD3090FD3090FDA295E433C454F042072090FD1D
:2001C0003090FD3090FDA295E433C40354F842072090FD3090FD3090FDA295E43325E0255C
:2001E000E042072090FD3090FD3090FDA295E43325E042072090FD3090FD3090FDA295E4D1
:200200003342072090FDC2953090FD2090FDD2958F8222E582900002F0E0900800F022AF38
:2002200082AE83ADF0FC900003EFF0EEA3F0EDA3F0ECA3F0900003E0FCA3E0FDA3E0FEA36D
:20024000E0FF780079007A007B00C3E89CE99DEA9EEB9F500F08B8000909B900050ABA0047
:20026000E90B80E6227582FF12032B742BC0E0740EC0E0120CE215811581120562743EC054
:20028000E0740EC0E0120CE21581158112070680FB43A88043A80122C0E0C082C083C0D068
:2002A000900081E02401F0758C03D0D0D083D082D0E032C0E0C082C083C0D0900080E02444
:0C02C00001F0D0D0D083D082D0E03232E8
:200E2B00496E697469616C7A69656420554152540A0D00496E697469616C7A6965642074B4
:170E4B006865204C43440A0D00456E642070726F6772616D0A0D0073
:0110310000BE
:2002CC00AF83E582900007F0EFA3F0209907308BFA90000022C299900007E0FEA3E0FF8E69
:2002EC00998E828F8322209807308BFA90000022C298AE997F008E828F8322209807308B11
:20030C00FA90000022C298209907308BFA90000022C299859999AE997F008E828F8322E5A3
:1D032C0082900009F0E0FF8F8D8F8B758921758780759852D28E438F01438F04226F
:200349003090FD2095FD2090FD222090FDC2953090FD2090FDD295223090FDA295E433F55F
:200369008222E58290000AF0E0FF23540124FF92953090FD2090FDEF2323540124FF929500
:200389003090FD2090FD90000AE0FFA2E5E43324FF92953090FD2090FDEFC4540124FF9262
:2003A900953090FD2090FD90000AE0FFA2E3E43324FF92953090FD2090FDEF0303540124FE
:2003C900FF92953090FD2090FD90000AE0FF03540124FF92953090FD2090FDEF540124FF98
:2003E90092953090FD2090FD3090FDA295500475820122758200223090FD3090FDA295E453
:2004090033035480FF2090FD3090FD3090FDA295E433030354C042072090FD3090FD3090C8
:20042900FDA295E433C42354E042072090FD3090FD3090FDA295E433C454F042072090FD91
:200449003090FD3090FDA295E433C40354F842072090FD3090FD3090FDA295E43325E025D0
:20046900E042072090FD3090FD3090FDA295E43325E042072090FD3090FD3090FDA295E445
:200489003342072090FDC2953090FD2090FDD2958F8222D295D290223090FD2095FD2090C5
:2004A900FD3090FD3090FDA2952090FD3090FD3090FDA2952090FD3090FD3090FDA29520A9
:2004C90090FD3090FD3090FDA2952090FD3090FD3090FDA2952090FD3090FD3090FDA29519
:2004E9002090FD3090FD3090FDA2952090FD3090FD3090FDA2952090FDC2953090FD2090C6
:07050900FDD295758202226C
:200E620000FFFFFFFFFFFF005033E6213469420F11240103800705780200000000000000BF
:200E820000000031400000000000000000000000000000000180A020E02D101060A2004926
:200EA2003100000018000000000000000000000000000000000000000000000000000000E7
:200EC200000000000000000000000000000000000000000000000000000000000000000010
:20051000E58290000DF0E0900800F022AF82AE83ADF0FC90000EEFF0EEA3F0EDA3F0ECA345
:20053000F090000EE0FCA3E0FDA3E0FEA3E0FF780079007A007B00C3E89CE99DEA9EEB9FF9
:20055000500F08B8000909B900050ABA00E90B80E622C2B4C2B5C2979008007401F07C009D
:200570007D007E007F00C3EC9460ED943DEE9408EF9400500F0CBC00090DBD00050EBE00B8
:20059000E50F80E29008007411F07C007D007E007F00C3EC9460ED943DEE9408EF94005034
:2005B0000F0CBC00090DBD00050EBE00E50F80E2900800743AF0D2979008007455F0C29711
:2005D00090080074C0F0D297900800740EF0F0C29790080074C1F0D2979008007441F0E44C
:2005F000F0C29790080074C2F0D2979008007455F0C29790080074C5F0D297900800E4F03B
:20061000F0F0F0C29790080074E0F0D297900800740FF0741FF0741CF0740CF0740FF074F7
:2006300008F07448F07498F07437F0740AF07413F07404F07411F0740DF0E4F0C297900877
:200650000074E1F0D297900800740FF07432F0742EF0740BF0740DF07405F07447F07475CC
:20067000F07437F07406F07410F07403F07424F07420F0E4F0C2979008007436F0D2979036
:2006900008007448F0C2979008007413F0742AF0D297900800E4F0F004F0743FF0C297905B
:2006B0000800742BF0D297900800E4F0F004F074DFF0C2979008007429F07451F0D297906B
:2006D000080074FFF07C007D007E007F00C3EC9460ED943DEE9408EF9400500F0CBC00090B
:2006F0000DBD00050EBE00E50F80E2C297900800742CF0D29722AE9053061F7F008E04EF37
:200710005403A2E0CC13CC13A2E0CC13CC13CCFDEE4204EF4205EEC40354F8FFE44204EFA6
:2007300042058C068D074307088E828F83ECF0EDA3F022E582900062F0900061E0541FFFBE
:20075000900060E0543FFEE4C3CE13CE13A2E0CE13CE13CEFD7C00EF4206EC4205900062D8
:20077000E0541FC40354F8FCE44206EC42058E048D074307088C828F83EEF0EDA3F022C2CE
:20079000B4C2B57E007F008E048F05C3EC9440ED9401503E7C007D008C028D03C3EA94E030
:2007B000EB94015026900060E4F0900061F0758200C007C006C005C004120743D004D0057C
:1707D000D006D0070CBC00D00D80CD0EBE00B80F80B5D2B4D2B5227C
:2007E700438F02900065E4F0900064F0900063F043890143A80243A880438810225388EFA2
:20080700224388102253A8FC900063E4F0900064F0900065F0F58CF58A438901229000812B
:20082700E0FFE06047EF14900081F0900065E02407900065F0FFBF640040E2900065E02425
:200847009C900065F0900064E0FF0F900064EFF0BF3C0040C8900064E024C4900064F09028
:130867000063E0FF0F900063EFF080B190006375F00022B0
:0110320000BD
:20087A003090FD2095FD2090FD222090FDC2953090FD2090FDD295223090FDA295E433F529
:20089A008222E582900066F0E0FF23540124FF92953090FD2090FDEF2323540124FF92956E
:2008BA003090FD2090FD900066E0FFA2E5E43324FF92953090FD2090FDEFC4540124FF92D0
:2008DA00953090FD2090FD900066E0FFA2E3E43324FF92953090FD2090FDEF03035401246C
:2008FA00FF92953090FD2090FD900066E0FF03540124FF92953090FD2090FDEF540124FF06
:20091A0092953090FD2090FD3090FDA295500475820122758200223090FD3090FDA295E41C
:20093A0033035480FF2090FD3090FD3090FDA295E433030354C042072090FD3090FD309092
:20095A00FDA295E433C42354E042072090FD3090FD3090FDA295E433C454F042072090FD5B
:20097A003090FD3090FDA295E433C40354F842072090FD3090FD3090FDA295E43325E0259A
:20099A00E042072090FD3090FD3090FDA295E43325E042072090FD3090FD3090FDA295E40F
:2009BA003342072090FDC2953090FD2090FDD2958F8222E582900067F0E0900800F022AF12
:2009DA0082AE83ADF0FC900068EFF0EEA3F0EDA3F0ECA3F0900068E0FCA3E0FDA3E0FEA3E2
:2009FA00E0FF780079007A007B00C3E89CE99DEA9EEB9F500F08B8000909B900050ABA0086
:200A1A00E90B80E62274E2C0E0740EC0E0120CE215811581742DC0E0740FC0E0120CE21583
:200A3A008115817459C0E0740FC0E0120CE21581158190006C75F000120C8190006CE0FFEE
:200A5A00BF3FE0120A6280DB745FC0E0740FC0E0120CE215811581747FC0E0740FC0E0123B
:200A7A000CE21581158174ACC0E0740FC0E0120CE21581158174C3C0E0740FC0E0120CE239
:200A9A001581158174DAC0E0740FC0E0120CE2158115812290006D75F000120C8190006DB3
:200ABA00E0FFBF6302802EBF72028016BF733812080474FBC0E0740FC0E0120CE21581153D
:200ADA008122120808740EC0E07410C0E0120CE2158115812212080C7421C0E07410C0E024
:200AFA00120CE21581158122AFF0AE83E58290006FF0EEA3F0EFA3F090006FE0FDA3E0FE08
:200B1A00A3E0FF8D828E838FF0E4120CC7A3120CC790006EE0FF7E00C3EE9F4003020BEC62
:200B3A00C007C0061202F2AC82D006D007EE600CBC0D028003BC0A04758200228C037D0096
:200B5A008B828D83C007C006C005C004C0031202CCD003D004D005D006D007BC300040054B
:200B7A00EC24C650047582FF22C00790006FE0F9A3E0FAA3E0FC89828A838CF0120E0BF8C7
:200B9A00A3120E0BFF90007EE8F0EFA3F090000AC006C005C004C003C002C001120DEBA825
:200BBA0082AF83D001D002D003D004D005D006EB24D0FBED34FFFDEB28F8ED3FFF89828AB0
:200BDA00838CF0E8120CC7A3EF120CC70ED007020B3275820022AFF0AE83E582900076F04E
:200BFA00EEA3F0EFA3F090007975F000120C81900076E0F508A3E0F509A3E0F50A7B007CEE
:200C1A0000900079E0FABA0D028042BA0A02803DEB2508F8EC3509F9AF0A888289838FF048
:200C3A00EA120CC70BBB00010C900075E0FE7F00EBB50606ECB50702801390007975F0003F
:200C5A00C004C003120C81D003D00480B4900072E0FDA3E0FEA3E0FF8D828E838FF0EB12FB
:200C7A000CC7A3EC020CC7AFF0AE83E58290007AF0EEA3F0EFA3F020980D900081E060F7E2
:200C9A00900081E4F080F090007AE0FDA3E0FEA3E0FFC007C006C005120307AB82D005D0BB
:0D0CBA0006D0078D828E838FF0EB020CC7F1
:200EE200202D2D2D2D2D2D2D2057656C636F6D6520746F2054415327732066696E616C20BA
:200F020070726F6A6563742C20616E206D6F6E69746F7220666F722057696E646F77732003
:200F22002D2D2D2D2D2D2D200A0D00092020506C65617320696E707574203F20666F7220C9
:200F420061206C697374206F6620636F6D6D616E64730A0D0A0D000A0D3E3E20000A0D20D3
:200F62002D2D2D20434F4D4D414E442048454C50204D454E55202D2D2D200A0D003F202DC1
:200F82002D20546869732068656C70206D656E752C2073686F77732076616C696420636F2A
:200FA2006D6D616E64732E0A0D0070202D2D2070617573657320746865204C43442E0A0D36
:200FC2000072202D2D20726573756D657320746865204C43440A0D007265736574202D2DF7
:200FE200207265737461727473207468652070726F6772616D2E0A0D000A0D54696D657281
:201002002073746F707065642E0A0D000A0D54696D657220726573756D65642E0A0D000AEE
:0F1022000D54696D65722072657365740A0D0057
:0110330001BB
:06009300E478FFF6D8FD41
:200071007903E94400601B7A01901031788075A000E493F2A308B8000205A0D9F4DAF27571
:02009100A0FFCE
:1B0CC70020F71130F6138883A88220F509F6A8837583002280FEF280F5F0222C
:200CE200C00B85810BE50B24FDF8868318868218E493A324DB600C24256005120DD080F03A
:200D0200020DE8D2D5E493A3C083C082B4731486F018868318868218120E0B6054A3120DE9
:200D2200D080F5B4630818E618120DD08043B46417E630E74618E6F42401F608E6F43400F0
:200D4200F6742D120DD08033B4782D868318868218E4120DC1E583120DC0E583120DC1E586
:200D620082120DC0E582120DC130D5057430120DD0D082D083020CF2B475F6E6FA18E6F991
:200D8200187C107D27120DABFF7CE87D03120DABC4F5837C647D00120DAB4283E975F00A12
:200DA20084C445F0F582EF80A97B000BC3E99CF9EA9DFA50F61BE92CF9EA3DFAEB22C45428
:200DC2000F700320D51FC2D52490D43440D4C083C082C0F0F582E8C0E01202CCD0E0F8D088
:090DE200F0D082D08322D00B2254
:200DEB00AA83AB828BF090007EE0A4F8A9F08AF0E0A429F98BF0A3E0A429F583888222223F
:200099007800E84400600A790175A000E4F309D8FC787FE84400600C7901900001E4F0A3E5
:0400B900D8FCD9FA9C
:0D00640075810B120E27E58260030200611A
:1C0E0B0020F71430F6148883A88220F507E6A88375830022E280F7E49322E022F6
:040E270075820022AE
:00000001FF
