:060000000200540202F3AD
:03000B000202D816
:200010000000E2FBEAF2802C0000E0FBEAF08024E6B50202EBF62200E2B50202EBF22200D6
:20003000E0B50202EBF02230F6E0A88220F5D3EAC6F582228B822230F6E6A88220F5D980E6
:01005000CFE0
:0300AD00020051FD
:0300510002025553
:2000B0003090FD2095FD2090FD222090FDC2953090FD2090FDD295223090FDA295E433F5FB
:2000D0008222E582900001F0E0FF23540124FF92953090FD2090FDEF2323540124FF9295A5
:2000F0003090FD2090FD900001E0FFA2E5E43324FF92953090FD2090FDEFC4540124FF9207
:20011000953090FD2090FD900001E0FFA2E3E43324FF92953090FD2090FDEF0303540124A2
:20013000FF92953090FD2090FD900001E0FF03540124FF92953090FD2090FDEF540124FF3C
:2001500092953090FD2090FD3090FDA295500475820122758200223090FD3090FDA295E4EE
:2001700033035480FF2090FD3090FD3090FDA295E433030354C042072090FD3090FD309064
:20019000FDA295E433C42354E042072090FD3090FD3090FDA295E433C454F042072090FD2D
:2001B0003090FD3090FDA295E433C40354F842072090FD3090FD3090FDA295E43325E0256C
:2001D000E042072090FD3090FD3090FDA295E43325E042072090FD3090FD3090FDA295E4E1
:2001F0003342072090FDC2953090FD2090FDD2958F8222E582900002F0E0900800F022AF49
:2002100082AE83ADF0FC900003EFF0EEA3F0EDA3F0ECA3F0900003E0FCA3E0FDA3E0FEA37D
:20023000E0FF780079007A007B00C3E89CE99DEA9EEB9F500F08B8000909B900050ABA0057
:20025000E90B80E6227582FF12035312058A744DC0E0740EC0E0120D0415811581900009A8
:20027000E4F0900007E0FF900008E0FE900009E0FD900067EEF0900068EDF08F82C007C0F6
:2002900006C005120768D005D006D00790000774022FF0E0FFBF20CA900007E4F0900008C9
:2002B00074022EF0E0FFBF40B9900008E4F090000974022DF0E0FFBF20A8900009E4F08018
:2002D000A143A88043A80122C0E0C082C083C0D0900087E02401F0758C03D0D0D083D082EA
:0402F000D0E03232F6
:200E4D00496E697469616C7A69656420746865204C43440A0D00456E642070726F677261E2
:040E6D006D0A0D00FD
:2002F400AF83E58290000EF0EFA3F0209907308BFA90000022C29990000EE0FEA3E0FF8E33
:20031400998E828F8322209807308BFA90000022C298AE997F008E828F8322209807308BE8
:20033400FA90000022C298209907308BFA90000022C299859999AE997F008E828F8322E57B
:1D03540082900010F0E0FF8F8D8F8B758921758780759852D28E438F01438F042240
:200371003090FD2095FD2090FD222090FDC2953090FD2090FDD295223090FDA295E433F537
:200391008222E582900011F0E0FF23540124FF92953090FD2090FDEF2323540124FF9295D1
:2003B1003090FD2090FD900011E0FFA2E5E43324FF92953090FD2090FDEFC4540124FF9233
:2003D100953090FD2090FD900011E0FFA2E3E43324FF92953090FD2090FDEF0303540124CF
:2003F100FF92953090FD2090FD900011E0FF03540124FF92953090FD2090FDEF540124FF69
:2004110092953090FD2090FD3090FDA295500475820122758200223090FD3090FDA295E42A
:2004310033035480FF2090FD3090FD3090FDA295E433030354C042072090FD3090FD3090A0
:20045100FDA295E433C42354E042072090FD3090FD3090FDA295E433C454F042072090FD69
:200471003090FD3090FDA295E433C40354F842072090FD3090FD3090FDA295E43325E025A8
:20049100E042072090FD3090FD3090FDA295E43325E042072090FD3090FD3090FDA295E41D
:2004B1003342072090FDC2953090FD2090FDD2958F8222D295D290223090FD2095FD20909D
:2004D100FD3090FD3090FDA2952090FD3090FD3090FDA2952090FD3090FD3090FDA2952081
:2004F10090FD3090FD3090FDA2952090FD3090FD3090FDA2952090FD3090FD3090FDA295F1
:200511002090FD3090FD3090FDA2952090FD3090FD3090FDA2952090FDC2953090FD20909D
:07053100FDD2957582022244
:200E710000FFFFFFFFFFFF005033E6213469420F11240103800000780200000000000000BC
:200E91000000003140000000000000000000000000000000000000000000000000000000D0
:200EB100000000000000000000000000000000000000000000000000000000000000000021
:200ED100000000000000000000000000000000000000000000000000000000000000000001
:20053800E582900014F0E0900800F022AF82AE83ADF0FC900015EFF0EEA3F0EDA3F0ECA30F
:20055800F0900015E0FCA3E0FDA3E0FEA3E0FF780079007A007B00C3E89CE99DEA9EEB9FCA
:20057800500F08B8000909B900050ABA00E90B80E622C2B4C2979008007401F07C007D006F
:200598007E007F00C3EC9460ED943DEE9408EF9400500F0CBC00090DBD00050EBE00E50F19
:2005B80080E29008007411F07C007D007E007F00C3EC9460ED943DEE9408EF9400500F0CE5
:2005D800BC00090DBD00050EBE00E50F80E2900800743AF0D2979008007455F0C29790086C
:2005F8000074C0F0D297900800740EF0F0C29790080074C1F0D2979008007441F0E4F0C20A
:200618009790080074C2F0D2979008007455F0C29790080074C5F0D297900800E4F0F0F0E4
:20063800F0C29790080074E0F0D297900800740FF0741FF0741CF0740CF0740FF07408F0B7
:200658007448F07498F07437F0740AF07413F07404F07411F0740DF0E4F0C29790080074D3
:20067800E1F0D297900800740FF07432F0742EF0740BF0740DF07405F07447F07475F074B4
:2006980037F07406F07410F07403F07424F07420F0E4F0C2979008007436F0D2979008006A
:2006B8007448F0C2979008007413F0742AF0D297900800E4F0F004F0743FF0C29790080033
:2006D800742BF0D297900800E4F0F004F074DFF0C2979008007429F07451F0D29790080043
:2006F80074E6F07C007D007E007F00C3EC9460ED943DEE9408EF9400500F0CBC00090DBD3A
:2007180000050EBE00E50F80E2C297900800742CF0D29722AF9053071F7E008F04EEC423F0
:2007380054E0CCC423CC6CCC54E0CC6CFDEF4204EE4205EFC40354F8FEE44204EE42058CF8
:20075800068D074307088E828F83ECF0EDA3F022E582900069F0900068E0541FFF90006764
:20077800E0543FFEE42354E0CEC423CE6ECE54E0CE6EFD7C00EF4206EC4205900069E05476
:200798001FC40354F8FCE44206EC42058E048D074307088C828F83EEF0EDA3F022C2B47EA8
:2007B800007F008E048F05C3EC9440ED9401503E7C007D008C028D03C3EA94E0EB940150E1
:2007D80026900067E4F0900068F0758200C007C006C005C004120768D004D005D006D00744
:1107F8000CBC00D00D80CD0EBE00B80F80B5D2B4228E
:20080900438F0290006CE4F090006BF090006AF043890143A80243A880438810225388EF6A
:20082900224388102253A8FC90006AE4F090006BF090006CF0F58CF58A43890122900087EE
:20084900E0FFE06047EF14900087F090006CE0240790006CF0FFBF640040E290006CE024E8
:200869009C90006CF090006BE0FF0F90006BEFF0BF3C0040C890006BE024C490006BF090E3
:13088900006AE0FF0F90006AEFF080B190006A75F0002279
:0110400000AF
:20089C003090FD2095FD2090FD222090FDC2953090FD2090FDD295223090FDA295E433F507
:2008BC008222E58290006DF0E0FF23540124FF92953090FD2090FDEF2323540124FF929545
:2008DC003090FD2090FD90006DE0FFA2E5E43324FF92953090FD2090FDEFC4540124FF92A7
:2008FC00953090FD2090FD90006DE0FFA2E3E43324FF92953090FD2090FDEF030354012443
:20091C00FF92953090FD2090FD90006DE0FF03540124FF92953090FD2090FDEF540124FFDC
:20093C0092953090FD2090FD3090FDA295500475820122758200223090FD3090FDA295E4FA
:20095C0033035480FF2090FD3090FD3090FDA295E433030354C042072090FD3090FD309070
:20097C00FDA295E433C42354E042072090FD3090FD3090FDA295E433C454F042072090FD39
:20099C003090FD3090FDA295E433C40354F842072090FD3090FD3090FDA295E43325E02578
:2009BC00E042072090FD3090FD3090FDA295E43325E042072090FD3090FD3090FDA295E4ED
:2009DC003342072090FDC2953090FD2090FDD2958F8222E58290006EF0E0900800F022AFE9
:2009FC0082AE83ADF0FC90006FEFF0EEA3F0EDA3F0ECA3F090006FE0FCA3E0FDA3E0FEA3B2
:200A1C00E0FF780079007A007B00C3E89CE99DEA9EEB9F500F08B8000909B900050ABA0063
:200A3C00E90B80E62274F1C0E0740EC0E0120D0415811581743CC0E0740FC0E0120D0415FD
:200A5C008115817468C0E0740FC0E0120D041581158190007375F000120CA3900073E0FF6A
:200A7C00BF3FE0120A8480DB746EC0E0740FC0E0120D0415811581748EC0E0740FC0E012B6
:200A9C000D041581158174BBC0E0740FC0E0120D041581158174D2C0E0740FC0E0120D0490
:200ABC001581158174E9C0E0740FC0E0120D04158115812290007475F000120CA39000742F
:200ADC00E0FFBF6302802EBF72028016BF7338120826740AC0E07410C0E0120D04158115C6
:200AFC00812212082A741DC0E07410C0E0120D04158115812212082E7430C0E07410C0E07D
:200B1C00120D041581158122AFF0AE83E582900076F0EEA3F0EFA3F0900076E0FDA3E0FEB4
:200B3C00A3E0FF8D828E838FF0E4120CE9A3120CE9900075E0FF7E00C3EE9F4003020C0ED2
:200B5C00C007C00612031AAC82D006D007EE600CBC0D028003BC0A04758200228C037D004B
:200B7C008B828D83C007C006C005C004C0031202F4D003D004D005D006D007BC3000400501
:200B9C00EC24C650047582FF22C007900076E0F9A3E0FAA3E0FC89828A838CF0120E2DF87C
:200BBC00A3120E2DFF900085E8F0EFA3F090000AC006C005C004C003C002C001120E0DA8B7
:200BDC0082AF83D001D002D003D004D005D006EB24D0FBED34FFFDEB28F8ED3FFF89828A8E
:200BFC00838CF0E8120CE9A3EF120CE90ED007020B5475820022AFF0AE83E58290007DF0BF
:200C1C00EEA3F0EFA3F090008075F000120CA390007DE0F508A3E0F509A3E0F50A7B007C9B
:200C3C0000900080E0FABA0D028042BA0A02803DEB2508F8EC3509F9AF0A888289838FF01F
:200C5C00EA120CE90BBB00010C90007CE0FE7F00EBB50606ECB50702801390008075F000ED
:200C7C00C004C003120CA3D003D00480B4900079E0FDA3E0FEA3E0FF8D828E838FF0EB12B0
:200C9C000CE9A3EC020CE9AFF0AE83E582900081F0EEA3F0EFA3F020980D900087E060F76F
:200CBC00900087E4F080F0900081E0FDA3E0FEA3E0FFC007C006C00512032FAB82D005D064
:0D0CDC0006D0078D828E838FF0EB020CE9AD
:200EF100202D2D2D2D2D2D2D2057656C636F6D6520746F2054415327732066696E616C20AB
:200F110070726F6A6563742C20616E206D6F6E69746F7220666F722057696E646F777320F4
:200F31002D2D2D2D2D2D2D200A0D00092020506C65617320696E707574203F20666F7220BA
:200F510061206C697374206F6620636F6D6D616E64730A0D0A0D000A0D3E3E20000A0D20C4
:200F71002D2D2D20434F4D4D414E442048454C50204D454E55202D2D2D200A0D003F202DB2
:200F91002D20546869732068656C70206D656E752C2073686F77732076616C696420636F1B
:200FB1006D6D616E64732E0A0D0070202D2D2070617573657320746865204C43442E0A0D27
:200FD1000072202D2D20726573756D657320746865204C43440A0D007265736574202D2DE8
:200FF100207265737461727473207468652070726F6772616D2E0A0D000A0D54696D657272
:201011002073746F707065642E0A0D000A0D54696D657220726573756D65642E0A0D000ADF
:0F1031000D54696D65722072657365740A0D0048
:0110410001AD
:06008300E478FFF6D8FD51
:200061007902E94400601B7A01901040788775A000E493F2A308B8000205A0D9F4DAF2756C
:02008100A0FFDE
:1B0CE90020F71130F6138883A88220F509F6A8837583002280FEF280F5F0220A
:200D0400C00B85810BE50B24FDF8868318868218E493A324DB600C24256005120DF280F0F5
:200D2400020E0AD2D5E493A3C083C082B4731486F018868318868218120E2D6054A3120D82
:200D4400F280F5B4630818E618120DF28043B46417E630E74618E6F42401F608E6F434008A
:200D6400F6742D120DF28033B4782D868318868218E4120DE3E583120DE2E583120DE3E5DC
:200D840082120DE2E582120DE330D5057430120DF2D082D083020D14B475F6E6FA18E6F9E6
:200DA400187C107D27120DCDFF7CE87D03120DCDC4F5837C647D00120DCD4283E975F00A8A
:200DC40084C445F0F582EF80A97B000BC3E99CF9EA9DFA50F61BE92CF9EA3DFAEB22C45406
:200DE4000F700320D51FC2D52490D43440D4C083C082C0F0F582E8C0E01202F4D0E0F8D03E
:090E0400F0D082D08322D00B2231
:200E0D00AA83AB828BF0900085E0A4F8A9F08AF0E0A429F98BF0A3E0A429F5838882222215
:200089007800E84400600A790175A000E4F309D8FC7886E84400600C7901900001E4F0A3EE
:0400A900D8FCD9FAAC
:0D00540075810B120E49E582600302005118
:1C0E2D0020F71430F6148883A88220F507E6A88375830022E280F7E49322E022D4
:040E4900758200228C
:00000001FF
