:0600000002005402023F61
:03000B00020224CA
:200010000000E2FBEAF2802C0000E0FBEAF08024E6B50202EBF62200E2B50202EBF22200D6
:20003000E0B50202EBF02230F6E0A88220F5D3EAC6F582228B822230F6E6A88220F5D980E6
:01005000CFE0
:0300AD00020051FD
:030051000201F9B0
:2000B0003090FD2095FD222090FDC2953090FDD295223090FDA295E433F58222E5829000BA
:2000D00001F07F072090FD900001E08FF005F08002C313D5F0FB540124FF92953090FD1F74
:2000F00080E23090FDA295E433035480FF2090FD3090FDA295E433030354C042072090FDE5
:200110003090FDA295E433C42354E042072090FD3090FDA295E433C454F042072090FD307A
:2001300090FDA295E433C40354F842072090FD3090FDA295E43325E025E042072090FD3090
:2001500090FDA295E43325E042072090FD3090FDA295E43342078F8222AF83E58290000207
:20017000F0EFA3F0900002E0FEA3E0FF8E048F058C828D83EEF022AF83E582900004F0EFBB
:20019000A3F0900004E0FEA3E0FF8E828F83E0F58222AF83E582900007F0EFA3F0900007F4
:2001B000E0FEA3E0FF900006E08E828F83F022AF83E582900009F0EFA3F07C007D007E000A
:2001D0007F00900009E0F8A3E0F97A007B00C3EC98ED99EE9AEF9B500F0CBC00090DBD00D5
:2001F000050EBE00DD0F80DA227582FF12029F12021D120376120783E58270F9748FC0E042
:20021000740BC0E0120A461581158180FE43A88043A80122C0E0C082C083C0D090205BE08A
:100230002401F0758C03D0D0D083D082D0E032324C
:0E0B8F00456E642070726F6772616D0A0D0012
:20024000AF83E58290000BF0EFA3F0209907308BFA90000022C29990000BE0FEA3E0FF8EED
:20026000998E828F8322209807308BFA90000022C298AE997F008E828F8322209807308B9D
:20028000FA90000022C298209907308BFA90000022C299859999AE997F008E828F8322E530
:1D02A0008290000DF0E0FF8F8D8F8B758921758780759852D28E438F01438F0422F8
:020B9D00002036
:2002BD003090FD2095FD222090FDC2953090FDD295223090FDA295E433F58222E58290208B
:2002DD000EF07F072090FD90200EE08FF005F08002C313D5F0FB540124FF92953090FD1F2B
:2002FD0080E23090FDA295E433035480FF2090FD3090FDA295E433030354C042072090FDD6
:20031D003090FDA295E433C42354E042072090FD3090FDA295E433C454F042072090FD306B
:20033D0090FDA295E433C40354F842072090FD3090FDA295E43325E025E042072090FD3081
:20035D0090FDA295E43325E042072090FD3090FDA295E43342078F8222D295D29022309078
:20037D00FD2095FD3090FDA2952090FD3090FDA2952090FD3090FDA2952090FD3090FDA26F
:20039D00952090FD3090FDA2952090FD3090FDA2952090FD3090FDA2952090FD3090FDA2BC
:0503BD0095758202228B
:200B9F0000FFFFFFFFFFFF005033E6213469420F1124010380000078020000000000000091
:200BBF000000003140000000000000000000000000000000000000000000000000000000A5
:200BDF000000000000000000000000000000000000000000000000000000000000000000F6
:200BFF000000000000000000000000000000000000000000000000000000000000000000D6
:2003C200AF83E582902011F0EFA3F0902011E0FEA3E0FF8E048F058C828D83EEF022AF83B8
:2003E200E582902013F0EFA3F0902013E0FEA3E0FF8E828F83E0F58222AF83E58290201642
:20040200F0EFA3F0902016E0FEA3E0FF902015E08E828F83F022AF83E582902018F0EFA386
:20042200F07C007D007E007F00902018E0F8A3E0F97A007B00C3EC98ED99EE9AEF9B500F85
:200442000CBC00090DBD00050EBE00DD0F80DA227C007D007E007F00C3ED9448EE9400EFD3
:200462009400500F0CBC00090DBD00050EBE00E80F80E59080387438F07C007D007E007FE5
:2004820000C3EC9462ED9407EE9400EF9400500F0CBC00090DBD00050EBE00E50F80E29077
:2004A20080387438F07F00BF2F0050030F80F89080387438F01204E29080387438F01204C9
:2004C200E290800E740EF01204E29080067406F01204E202059D90C000E0235401F5822253
:2004E2001204D8AF82BF010280F622E58290202EF0E0FE7F0074A02FFFC007C0061204D832
:20050200E582D006D0076004758201228E048F058C828D83EEF075820022AFF0AE83E582D5
:20052200902035F0EEA3F0EFA3F0902033E0FEA3E0FF902035E0FBA3E0FCA3E0FD902031FE
:20054200E0F9A3E0FAC3EE99EF9A504AC001C002EE2BF8EF3CF98D02888289838AF0120BE2
:200562006FF582C007C006C005C004C003C002C0011204EDE582D001D002D003D004D005AE
:20058200D006D007D002D00160058E828F83220EBE00B20F80AF89828A83221204E2908062
:0505A200017401F022CC
:2005A700438F0290203CE4F090203BF090203AF043890143A80243A880438810225388EFFF
:2005C700224388102253A8FC90203AE4F090203BF090203CF0F58CF58A4389012290205B8F
:2005E700E0FFE06047EF1490205BF090203CE0240790203CF0FFBF640040E290203CE02489
:200607009C90203CF090203BE0FF0F90203BEFF0BF3C0040C890203BE024C490203BF09097
:13062700203AE0FF0F90203AEFF080B190203A75F000220D
:010D6E000084
:20063A003090FD2095FD222090FDC2953090FDD295223090FDA295E433F58222E58290200A
:20065A003DF07F072090FD90203DE08FF005F08002C313D5F0FB540124FF92953090FD1F4C
:20067A0080E23090FDA295E433035480FF2090FD3090FDA295E433030354C042072090FD55
:20069A003090FDA295E433C42354E042072090FD3090FDA295E433C454F042072090FD30EB
:2006BA0090FDA295E433C40354F842072090FD3090FDA295E43325E025E042072090FD3001
:2006DA0090FDA295E43325E042072090FD3090FDA295E43342078F8222AF83E58290203E1C
:2006FA00F0EFA3F090203EE0FEA3E0FF8E048F058C828D83EEF022AF83E582902040F0EF74
:20071A00A3F0902040E0FEA3E0FF8E828F83E0F58222AF83E582902043F0EFA3F090204350
:20073A00E0FEA3E0FF902042E08E828F83F022AF83E582902045F0EFA3F07C007D007E00C2
:20075A007F00902045E0F8A3E0F97A007B00C3EC98ED99EE9AEF9B500F0CBC00090DBD00E9
:20077A00050EBE00DD0F80DA22741FC0E0740CC0E0120A4615811581746AC0E0740CC0E0A7
:20079A00120A46158115817496C0E0740CC0E0120A461581158190204775F0001209E5906D
:2007BA002047E0FFBF3FE01207C680DB749CC0E0740CC0E0120A461581158174BCC0E0741F
:2007DA000CC0E0120A461581158174E9C0E0740CC0E0120A46158115817400C0E0740DC0C5
:2007FA00E0120A46158115817417C0E0740DC0E0120A46158115812290204875F0001209FD
:20081A00E5902048E0FFBF6302802EBF72028016BF73381205C47438C0E0740DC0E0120A99
:20083A004615811581221205C8744BC0E0740DC0E0120A4615811581221205CC745EC0E0A6
:20085A00740DC0E0120A461581158122AFF0AE83E58290204AF0EEA3F0EFA3F090204AE0AF
:20087A00FDA3E0FEA3E0FF8D828E838FF0E4120A2BA3120A2B902049E0FF7E00C3EE9F40C4
:20089A0003020950C007C006120266AC82D006D007EE600CBC0D028003BC0A047582002273
:2008BA008C037D008B828D83C007C006C005C004C003120240D003D004D005D006D007BCE3
:2008DA0030004005EC24C650047582FF22C00790204AE0F9A3E0FAA3E0FC89828A838CF01D
:2008FA00120B6FF8A3120B6FFF902059E8F0EFA3F090000AC006C005C004C003C002C0019A
:20091A00120B4FA882AF83D001D002D003D004D005D006EB24D0FBED34FFFDEB28F8ED3FD2
:20093A00FF89828A838CF0E8120A2BA3EF120A2B0ED00702089675820022AFF0AE83E5822D
:20095A00902051F0EEA3F0EFA3F090205475F0001209E5902051E0F508A3E0F509A3E0F549
:20097A000A7B007C00902054E0FABA0D028042BA0A02803DEB2508F8EC3509F9AF0A88827A
:20099A0089838FF0EA120A2B0BBB00010C902050E0FE7F00EBB50606ECB5070280139020B8
:2009BA005475F000C004C0031209E5D003D00480B490204DE0FDA3E0FEA3E0FF8D828E8305
:2009DA008FF0EB120A2BA3EC020A2BAFF0AE83E582902055F0EEA3F0EFA3F020980D9020E2
:2009FA005BE060F790205BE4F080F0902055E0FDA3E0FEA3E0FFC007C006C00512027BAB8B
:110A1A0082D005D006D0078D828E838FF0EB020A2B06
:200C1F00202D2D2D2D2D2D2D2057656C636F6D6520746F2054415327732066696E616C207F
:200C3F0070726F6A6563742C20616E206D6F6E69746F7220666F722057696E646F777320C9
:200C5F002D2D2D2D2D2D2D200A0D00092020506C65617320696E707574203F20666F72208F
:200C7F0061206C697374206F6620636F6D6D616E64730A0D0A0D000A0D3E3E20000A0D2099
:200C9F002D2D2D20434F4D4D414E442048454C50204D454E55202D2D2D200A0D003F202D87
:200CBF002D20546869732068656C70206D656E752C2073686F77732076616C696420636FF0
:200CDF006D6D616E64732E0A0D0070202D2D2070617573657320746865204C43442E0A0DFC
:200CFF000072202D2D20726573756D657320746865204C43440A0D007265736574202D2DBD
:200D1F00207265737461727473207468652070726F6772616D2E0A0D000A0D54696D657246
:200D3F002073746F707065642E0A0D000A0D54696D657220726573756D65642E0A0D000AB4
:0F0D5F000D54696D65722072657365740A0D001D
:010D6F000182
:06008300E478FFF6D8FD51
:200061007902E94400601B7A01900D6E785B75A020E493F2A308B8000205A0D9F4DAF2754D
:02008100A0FFDE
:1B0A2B0020F71130F6138883A88220F509F6A8837583002280FEF280F5F022CA
:200A4600C00B85810BE50B24FDF8868318868218E493A324DB600C24256005120B3480F076
:200A6600020B4CD2D5E493A3C083C082B4731486F018868318868218120B6F6054A3120BC7
:200A86003480F5B4630818E618120B348043B46417E630E74618E6F42401F608E6F43400C9
:200AA600F6742D120B348033B4782D868318868218E4120B25E583120B24E583120B25E59D
:200AC60082120B24E582120B2530D5057430120B34D082D083020A56B475F6E6FA18E6F9A8
:200AE600187C107D27120B0FFF7CE87D03120B0FC4F5837C647D00120B0F4283E975F00A8B
:200B060084C445F0F582EF80A97B000BC3E99CF9EA9DFA50F61BE92CF9EA3DFAEB22C454C6
:200B26000F700320D51FC2D52490D43440D4C083C082C0F0F582E8C0E0120240D0E0F8D0B2
:090B4600F0D082D08322D00B22F2
:200B4F00AA83AB828BF0902059E0A4F8A9F08AF0E0A429F98BF0A3E0A429F58388822222E2
:200089007800E84400600A790175A000E4F309D8FC785AE84420600C7921900001E4F0A3DA
:0400A900D8FCD9FAAC
:0D00540075810B120B8BE5826003020051D9
:1C0B6F0020F71430F6148883A88220F507E6A88375830022E280F7E49322E02295
:040B8B00758200224D
:00000001FF
