:060000000200640202BCD4
:03000B000202A14D
:0100130032BA
:03001B000202C01E
:200020000000E2FBEAF2802C0000E0FBEAF08024E6B50202EBF62200E2B50202EBF22200C6
:20004000E0B50202EBF02230F6E0A88220F5D3EAC6F582228B822230F6E6A88220F5D980D6
:01006000CFD0
:0300BD00020061DD
:0300610002024C4C
:2000C0003095FD2096FD2095FD222095FDC2963095FD2095FDD296223095FDA296E433F5C9
:2000E0008222E582900001F0C295900001E0FF23540124FF9296D295C295EF23235401247E
:20010000FF9296D295C295EFA2E5E43324FF9296D295C295EFC4540124FF9296D295C29553
:20012000EFA2E3E43324FF9296D295C295EF0303540124FF9296D295C295EF03540124FF6E
:200140009296D295C295EF540124FF9296D2953095FDA2965004758201227582002230957D
:20016000FD3095FDA296E433035480FF2095FD3095FD3095FDA296E433030354C042072093
:2001800095FD3095FD3095FDA296E433C42354E042072095FD3095FD3095FDA296E433C44D
:2001A00054F042072095FD3095FD3095FDA296E433C40354F842072095FD3095FD3095FD9B
:2001C000A296E43325E025E042072095FD3095FD3095FDA296E43325E042072095FD309533
:2001E000FD3095FDA296E43342072095FDC2963095FD2095FDD2968F8222E582900002F0A6
:20020000E0900800F022AF82AE83ADF0FC900003EFF0EEA3F0EDA3F0ECA3F0900003E0FCF8
:20022000A3E0FDA3E0FEA3E0FF780079007A007B00C3E89CE99DEA9EEB9F500F08B800094E
:2002400009B900050ABA00E90B80E6227582FF1203237422C0E0741AC0E0120E77158115C3
:20026000811204EA7435C0E0741AC0E0120E77158115811204EFE58270F91207307452C01F
:20028000E0741AC0E0120E771581158130B3FD1202971208D280FB43A88043A80143A80455
:2002A00022C0E0C082C083C0D09000B9E02401F0758C03D0D0D083D082D0E03230B2FD32ED
:0402C00030B3FD3228
:201A2200496E697469616C697A656420554152540A0D00417474656D7074696E6720746F9B
:201A42002073656E6420454449442E2E2E0A0D00496E697469616C7A6965642074686520EC
:061A62004C43440A0D0094
:2002C400AF83E582900007F0EFA3F0209907308BFA90000022C299900007E0FEA3E0FF8E71
:2002E400998E828F8322209807308BFA90000022C298AE997F008E828F8322209807308B19
:20030400FA90000022C298209907308BFA90000022C299859999AE997F008E828F8322E5AB
:1D03240082900009F0E0FF8F8D8F8B758921758780759852D28E438F01438F042277
:200341003095FD2096FD2095FD222095FDC2963095FD2095FDD296223095FDA296E433F545
:200361008222E58290000AF0C29590000AE0FF23540124FF9296D295C295EF2323540124E8
:20038100FF9296D295C295EFA2E5E43324FF9296D295C295EFC4540124FF9296D295C295D0
:2003A100EFA2E3E43324FF9296D295C295EF0303540124FF9296D295C295EF03540124FFEB
:2003C1009296D295C295EF540124FF9296D2953095FDA296500475820122758200223095FA
:2003E100FD3095FDA296E433035480FF2095FD3095FD3095FDA296E433030354C042072010
:2004010095FD3095FD3095FDA296E433C42354E042072095FD3095FD3095FDA296E433C4C9
:2004210054F042072095FD3095FD3095FDA296E433C40354F842072095FD3095FD3095FD17
:20044100A296E43325E025E042072095FD3095FD3095FDA296E43325E042072095FD3095AF
:20046100FD3095FDA296E43342072095FDC2963095FD2095FDD2968F822290000BE4F0FF9D
:20048100BF80005043EF901A6893FE90000BE02EF0BE1000500A900030C0071202C4D00700
:2004A100EF901A6893FE7D00C007C006C00574E8C0E0741AC0E07480C0E0120FEEE5812483
:2004C100FBF581D0070F80B890000BE0FE7F00C006C00774EBC0E0741AC0E07480C0E01234
:2004E1000FEEE58124FBF58122D296D295223095FD2096FD2095FD3095FD3095FDA296E429
:2005010033035480FF2095FD3095FD3095FDA296E433030354C042072095FD3095FD3095B0
:20052100FDA296E433C42354E042072095FD3095FD3095FDA296E433C454F042072095FD82
:200541003095FD3095FDA296E433C40354F842072095FD3095FD3095FDA296E43325E025BC
:20056100E042072095FD3095FD3095FDA296E43325E042072095FD3095FD3095FDA296E42C
:200581003342072095FDC2963095FD2095FDD296BFA102801B7E00C007C006C007C00674EF
:2005A100FCC0E0741AC0E0120E77E58124FAF5812095FDC2963095FD2095FDD296C2959012
:2005C100000CE4F0FFBF7F004003020667EF901A6893FEC295EE23540124FF9296D295C288
:2005E10095EE2323540124FF9296D295C295EEA2E5E43324FF9296D295C295EEC454012413
:20060100FF9296D295C295EEA2E3E43324FF9296D295C295EE0303540124FF9296D295C2A4
:2006210095EE03540124FF9296D295C295EE540124FF9296D2953095FDA296502090000CDA
:20064100E0FD7E00C005C0067424C0E0741BC0E0120E77E58124FCF581758204220F9000FD
:200661000CEFF00205C6901AE7E493FFC295EF23540124FF9296D295C295EF232354012445
:20068100FF9296D295C295EFA2E5E43324FF9296D295C295EFC4540124FF9296D295C295CD
:2006A100EFA2E3E43324FF9296D295C295EF0303540124FF9296D295C295EF03540124FFE8
:1D06C1009296D295C295EF540124FF9296D2953095FDA29640030205C07582002223
:201A680000FFFFFFFFFFFF005033E6213469420F11240103800705780A00000000000000A5
:201A8800000000200000314001010101010101010101010101010F0080A020E02D101060C3
:201AA800A200493100000018000000FD00013C01501A000A202020202020000000FC00542B
:201AC8004153204C43440A2020202020000000100000000000000000000000000000009825
:201AE8002558000A0D436865636B73756D3A2025750A0D0025752C28255829206973206EEE
:201B08006F742061206D6F6E69746F72207265616420416464726573730A0D004E61636BFB
:101B2800656420696E20726561642025750A0D0060
:2006DE00E58290000FF0E0900800F022AF82AE83ADF0FC900010EFF0EEA3F0EDA3F0ECA372
:2006FE00F0900010E0FCA3E0FDA3E0FEA3E0FF780079007A007B00C3E89CE99DEA9EEB9F28
:20071E00500F08B8000909B900050ABA00E90B80E622C2B4C2979008007401F07C007D00C7
:20073E007E007F00C3EC9460ED943DEE9408EF9400500F0CBC00090DBD00050EBE00E50F71
:20075E0080E29008007411F07C007D007E007F00C3EC9460ED943DEE9408EF9400500F0C3D
:20077E00BC00090DBD00050EBE00E50F80E2900800743AF0D2979008007455F0C2979008C4
:20079E000074C0F0D297900800740EF0F0C29790080074C1F0D2979008007441F0E4F0C262
:2007BE009790080074C2F0D2979008007455F0C29790080074C5F0D297900800E4F0F0F03D
:2007DE00F0C29790080074E0F0D297900800740FF0741FF0741CF0740CF0740FF07408F010
:2007FE007448F07498F07437F0740AF07413F07404F07411F0740DF0E4F0C297900800742C
:20081E00E1F0D297900800740FF07432F0742EF0740BF0740DF07405F07447F07475F0740C
:20083E0037F07406F07410F07403F07424F07420F0E4F0C2979008007436F0D297900800C2
:20085E007448F0C2979008007413F0742AF0D297900800E4F0F004F0743FF0C2979008008B
:20087E00742BF0D297900800E4F0F004F074DFF0C2979008007429F07451F0D2979008009B
:20089E0074FFF07C007D007E007F00C3EC9460ED943DEE9408EF9400500F0CBC00090DBD79
:2008BE0000050EBE00E50F80E2C297900800742CF0D29722E590541FFA23232354F8F9EA6D
:2008DE00030349F58323232354C04AF582F0A3E583F022E582900064F0900063E0541FFF58
:2008FE00900062E0543FFEE4C3CE13CE13A2E0CE13CE13CEFD7C00EF4206EC420590006425
:20091E00E0541FC40354F8FCE44206EC42058E048D074307088C828F83EEF0EDA3F022C21E
:20093E00B4C2B57E007F008E048F05C3EC9440ED9401503E7C007D008C028D03C3EA94E080
:20095E00EB94015026900062E4F0900063F0758200C007C006C005C0041208F1D004D00519
:17097E00D006D0070CBC00D00D80CD0EBE00B80F80B5D2B4D2B522CC
:20099500438F02900067E4F0900066F0900065F043890143A80243A880438810225388EFEC
:2009B500224388102253A8FC900065E4F0900066F0900067F0F58CF58A438901229000B93E
:2009D500E0FFE06047EF149000B9F0900067E02407900067F0FFBF640040E2900067E02438
:2009F5009C900067F0900066E0FF0F900066EFF0BF3C0040C8900066E024C4900066F0906F
:130A15000065E0FF0F900065EFF080B190006575F00022FA
:011C92000051
:200A28003095FD2096FD2095FD222095FDC2963095FD2095FDD296223095FDA296E433F557
:200A48008222E582900068F0C295900068E0FF23540124FF9296D295C295EF23235401243E
:200A6800FF9296D295C295EFA2E5E43324FF9296D295C295EFC4540124FF9296D295C295E2
:200A8800EFA2E3E43324FF9296D295C295EF0303540124FF9296D295C295EF03540124FFFD
:200AA8009296D295C295EF540124FF9296D2953095FDA2965004758201227582002230950C
:200AC800FD3095FDA296E433035480FF2095FD3095FD3095FDA296E433030354C042072022
:200AE80095FD3095FD3095FDA296E433C42354E042072095FD3095FD3095FDA296E433C4DC
:200B080054F042072095FD3095FD3095FDA296E433C40354F842072095FD3095FD3095FD29
:200B2800A296E43325E025E042072095FD3095FD3095FDA296E43325E042072095FD3095C1
:200B4800FD3095FDA296E43342072095FDC2963095FD2095FDD2968F8222E582900069F0CD
:200B6800E0900800F022AF82AE83ADF0FC90006AEFF0EEA3F0EDA3F0ECA3F090006AE0FCB9
:200B8800A3E0FDA3E0FEA3E0FF780079007A007B00C3E89CE99DEA9EEB9F500F08B80009DD
:200BA80009B900050ABA00E90B80E6227438C0E0741BC0E0120E77158115817483C0E074DD
:200BC8001BC0E0120E771581158174AFC0E0741BC0E0120E771581158190006E75F0001265
:200BE8000E1690006EE0FFBF3FE0120BF780DB74B5C0E0741BC0E0120E771581158174D59B
:200C0800C0E0741BC0E0120E77158115817402C0E0741CC0E0120E77158115817419C0E004
:200C2800741CC0E0120E77158115817430C0E0741CC0E0120E77158115812290006F75F0FC
:200C480000120E1690006FE0FFBF6302802EBF72028016BF73381209B27451C0E0741CC0F1
:200C6800E0120E7715811581221209B67464C0E0741CC0E0120E7715811581221209BA7400
:200C880077C0E0741CC0E0120E771581158122AFF0AE83E582900071F0EEA3F0EFA3F09065
:200CA8000071E0FDA3E0FEA3E0FF8D828E838FF0E4120E5CA3120E5C900070E0FF7E00C39D
:200CC800EE9F4003020D81C007C0061202EAAC82D006D007EE600CBC0D028003BC0A04755F
:200CE8008200228C037D008B828D83C007C006C005C004C0031202C4D003D004D005D0061C
:200D0800D007BC30004005EC24C650047582FF22C007900071E0F9A3E0FAA3E0FC89828A4F
:200D2800838CF0121A02F8A3121A02FF900080E8F0EFA3F090000AC006C005C004C003C0E0
:200D480002C001120F80A882AF83D001D002D003D004D005D006EB24D0FBED34FFFDEB28CC
:200D6800F8ED3FFF89828A838CF0E8120E5CA3EF120E5C0ED007020CC775820022AFF0AE22
:200D880083E582900078F0EEA3F0EFA3F090007B75F000120E16900078E0F508A3E0F5095A
:200DA800A3E0F50A7B007C0090007BE0FABA0D028042BA0A02803DEB2508F8EC3509F9AFDD
:200DC8000A888289838FF0EA120E5C0BBB00010C900077E0FE7F00EBB50606ECB5070280F9
:200DE8001390007B75F000C004C003120E16D003D00480B4900074E0FDA3E0FEA3E0FF8D5F
:200E0800828E838FF0EB120E5CA3EC020E5CAFF0AE83E58290007CF0EEA3F0EFA3F0209868
:200E28000D9000B9E060F79000B9E4F080F090007CE0FDA3E0FEA3E0FFC007C006C0051240
:140E480002FFAB82D005D006D0078D828E838FF0EB020E5CF0
:201B3800202D2D2D2D2D2D2D2057656C636F6D6520746F2054415327732066696E616C2057
:201B580070726F6A6563742C20616E206D6F6E69746F7220666F722057696E646F777320A1
:201B78002D2D2D2D2D2D2D200A0D00092020506C65617320696E707574203F20666F722067
:201B980061206C697374206F6620636F6D6D616E64730A0D0A0D000A0D3E3E20000A0D2071
:201BB8002D2D2D20434F4D4D414E442048454C50204D454E55202D2D2D200A0D003F202D5F
:201BD8002D20546869732068656C70206D656E752C2073686F77732076616C696420636FC8
:201BF8006D6D616E64732E0A0D0070202D2D2070617573657320746865204C43442E0A0DD4
:201C18000072202D2D20726573756D657320746865204C43440A0D007265736574202D2D94
:201C3800207265737461727473207468652070726F6772616D2E0A0D000A0D54696D65721E
:201C58002073746F707065642E0A0D000A0D54696D657220726573756D65642E0A0D000A8C
:0F1C78000D54696D65722072657365740A0D00F5
:011C9300014F
:06009300E478FFF6D8FD41
:200071007902E94400601B7A01901C9278B975A000E493F2A308B8000205A0D9F4DAF275CC
:02009100A0FFCE
:1B0E5C0020F71130F6138883A88220F509F6A8837583002280FEF280F5F02295
:200E7700C00B85810BE50B24FDF8868318868218E493A324DB600C24256005120F6580F00C
:200E9700020F7DD2D5E493A3C083C082B4731486F018868318868218121A026054A3120FB7
:200EB7006580F5B4630818E618120F658043B46417E630E74618E6F42401F608E6F434002E
:200ED700F6742D120F658033B4782D868318868218E4120F56E583120F55E583120F56E594
:200EF70082120F55E582120F5630D5057430120F65D082D083020E87B475F6E6FA18E6F99F
:200F1700187C107D27120F40FF7CE87D03120F40C4F5837C647D00120F404283E975F00AB6
:200F370084C445F0F582EF80A97B000BC3E99CF9EA9DFA50F61BE92CF9EA3DFAEB22C45491
:200F57000F700320D51FC2D52490D43440D4C083C082C0F0F582E8C0E01202C4D0E0F8D0F9
:090F7700F0D082D08322D00B22BD
:200F8000AA83AB828BF0900080E0A4F8A9F08AF0E0A429F98BF0A3E0A429F58388822222A6
:200099007800E84400600A790175A000E4F309D8FC78B8E84400600C7901900001E4F0A3AC
:0400B900D8FCD9FA9C
:200FA000C00B85810B7E008E831202C4D00B22AFF0AE83E582900083F0EEA3F0EFA3F09024
:200FC0000083E0FDA3E0FEA3E0FF900082E0FC900097E4F0A3F0A3F090009AEDF0EEA3F017
:200FE000EFA3F090009DECF0900FA00210F2C00BE581F50B24FBFF900097E4F0A3F0A3F0B3
:20100000E50B24FBF890009AE6F008E6A3F008E6A3F090009DEFF0900FA01210F2D00B226B
:20102000E582900093F0E0FF900089E0C0E0A3E0C0E0A3E0C0E012103B800D900087E0C0D7
:20104000E0A3E0C0E08F8222158115811581900091E02401F0A3E03400F022E5829000942E
:20106000F0E02430FF24C6500D74072FFF900086E060034307208F82021020E582900095CB
:20108000F0E0FFC4540FF582C00712105BD00753070F8F8202105BE582900096F090008C48
:2010A000E0FCA3E0FDA3E0FEA3E0FF900090E0FB900096E0FA7920EB2BF516EF2354014570
:2010C00016FBEC2CFCED33FDEE33FEEF33FFC3EB9A4007EBC39AFB43040119E970D9900099
:2010E0008CECF0EDA3F0EEA3F0EFA3F0900090EBF022AF83E58290009EF0EFA3F090009E81
:20110000E0FEA3E0FF900087EEF0EFA3F0900097E0FDA3E0FEA3E0FF900089EDF0EEA3F07A
:20112000EFA3F0900091E4F0A3F090009AE0FDA3E0FEA3E0FF8D828E838FF0121A02FC9042
:20114000009A74012DF0E43EA3F0EFA3F0EC70030219DEBC250280030219D69000A0E4F079
:201160009000A1F09000A2F09000A3F09000A4F09000A5F09000A6F09000A7F09000A9F04A
:201180009000AAF0A3F09000AC14F0A3F090009AE0FDA3E0FEA3E0FF8D828E838FF0121AEA
:2011A00002FBA3AD82AE8390009AEDF0EEA3F0EFA3F09000B0EBF0BB25088B8212102002D1
:2011C000112ABB3000500302128BEB24C6500302128B9000ACE0F50CA3E0F50D74FFB50C5A
:2011E00063B50D60C005C006C0079000AAE0FAA3E0FF900080EAF0EFA3F090000AC005C0F7
:2012000003120F80AE82AF83D003D0058B057A00ED2EFEEA3FFFEE24D0FEEF34FFFF900044
:20122000AAEEF0EFA3F0D007D006D0059000AAE0F5F0A3E045F060030211989000A17401B7
:20124000F0021198C005C006C007900080E50CF0E50DA3F090000AC006C005C003120F80A2
:20126000AA82AF83D003D005D0067E00EB2AFAEE3FFFEA24D0FAEF34FFFF9000ACEAF0EFDB
:20128000A3F0D007D006D0050211989000B0E0FBBB2E2FC005C006C0079000ACE0FAA3E070
:2012A000FFBAFF05BFFF028009D007D006D005021198D007D006D0059000ACE4F0A3F002D4
:2012C0001198BB61004014EB2485400F9000B074DF5BF09000867401F08005900086E4F04A
:2012E0009000B0E0FBBB20028075BB2B028067BB2D028059BB4202806FBB4302807CBB4486
:2013000003021582BB46030215A8BB4803021198BB4903021582BB4A03021198BB4C0280E1
:2013200050BB4F03021590BB50030214F0BB53028077BB5403021198BB5503021598BB58FC
:20134000030215A0BB5A030211980215B09000A07401F00211989000A27401F00211989037
:2013600000A37401F00211989000A57401F00211989000A67401F00211989000A5E0600EAC
:2013800090009DE014F9F09000B0E7F0800F90009DE024FEFFF08F019000B0E7F09000B098
:2013A000E0F5821210200215BF90009DE024FDFFF08F018705098706098707191990008C0A
:2013C000EDF0EEA3F0EFA3F08D828E838FF01219EA85820C85830D9000ACE0FAA3E0FDBA01
:2013E000FF0DBDFF0A9000ACE50CF0E50DA3F09000A0E0704B9000AAE0FAA3E0FDC3E50C66
:201400009AE50D9D503A9000AAEAC3950CF0ED950DA3F09000AAE0FAA3E0FD8A068D071AAD
:20142000BAFF011DEE4F6010758220C005C002121020D002D00580E39000AAEAF0EDA3F0AA
:201440009000ACE0F50FA3E0F51090008CE0FAA3E0FDA3E0FF8A828D838FF0121A02F50E20
:20146000603CC3E4950F74808510F063F08095F0502C150F74FFB50F021510850E8212107F
:201480002090008CE0FAA3E0FDA3E0FF0ABA00010D90008CEAF0EDA3F0EFA3F080AC9000AE
:2014A000A0E070030215BF9000AAE0FEA3E0FFC3E50C9EE50D9F40030215BF9000AAEEC3E2
:2014C000950CF0EF950DA3F09000AAE0FEA3E0FF8E028F051EBEFF011FEA4D70030215B726
:2014E000758220C007C006121020D006D00780E090009DE024FDFDF08D018711098712090D
:201500008713191990008CE511F0E512A3F0E513A3F090008EE0FDBD800040089000B074B4
:2015200043F08020BD600040089000B07450F08013BD400040089000B07449F080069000A4
:20154000B07458F09000B0E0FDF582C00512102075823A1210207582301210207582781227
:201560001020D005BD4902800EBD5002800990008DE0F58212107B90008CE0F58212107B17
:20158000803D9000A47401F09000A9740AF0802F9000A97408F080279000A9740AF0801F0D
:2015A0009000A97410F080179000A77401F0800F8B8212102080089000AAEEF0EFA3F090BB
:2015C00000A7E0607190009DE024FCFFF08F01870309870509870609870719191990008C54
:2015E000EBF0EDA3F0EEA3F0EFA3F090008C7487F0741CA3F07480A3F090008CE0F511A337
:20160000E0F512A3E0F51374012511FAE43512FBAF1390008CEAF0EBA3F0EFA3F0851182BD
:201620008512838513F0121A02FF700302112A8F8212102080C39000A9E0F50FE070030223
:20164000112A9000A5E0604790009DE014F9F087067D007B007A0090008CEEF0EDA3F0EB25
:20166000A3F0EAA3F09000A4E0600302170590008CE0FAA3E0A3E0A3E07B007D007E009040
:20168000008CEAF0EBA3F0EDA3F0EEA3F080769000A6E0602890009DE024FCFEF08E0187A0
:2016A0000209870309870509870619191990008CEAF0EBA3F0EDA3F0EEA3F0804890009DB5
:2016C000E024FEFEF08E01870509870619EE3395E0FBFA90008CEDF0EEA3F0EBA3F0EAA340
:2016E000F09000A4E0701E90008CE0FAA3E0FBA3E0A3E07D007E0090008CEAF0EBA3F0ED82
:20170000A3F0EEA3F09000A4E0603D90008CE0A3E0A3E0A3E030E72B90008CE0FAA3E0FBC9
:20172000A3E0FDA3E0FEC3E49AFAE49BFBE49DFDE49EFE90008CEAF0EBA3F0EDA3F0EEA370
:20174000F080059000A4E4F09000A87401F07514B6751500E4F50CF50D900090E4F0850F37
:20176000821210979000A8E07033900090E0C454F0F511900090E0C4540F4511F511851449
:2017800082851583E0FFE5114207851482851583EFF0151474FFB514021515800B90009039
:2017A000E0851482851583F0050CE4B50C02050D9000A8E0B40100E433F090008CE0FAA3EA
:2017C000E0FBA3E0FEA3E0FFEA4B4E4F708B9000B7E514F0E515A3F09000AEE50CF0E50D90
:2017E000A3F09000AAE0F5F0A3E045F070099000AA7401F0E4A3F09000A1E0FFE0703E90E2
:2018000000A0E070389000AAE0FDA3E0FE9000AEE0FB0B7A00C3EB9DEA9E5019758220C057
:2018200007C006C005121020D005D006D0071DBDFF011E80D89000AAEDF0EEA3F09000A436
:20184000E0602075822DC007121020D0079000AAE024FFFDA3E034FFFE9000AAEDF0EEA38E
:20186000F080569000AEE0F5F0A3E045F0604A9000A2E0602075822BC007121020D0079019
:2018800000AAE024FFFDA3E034FFFE9000AAEDF0EEA3F080249000A3E0601E758220C0073F
:2018A000121020D0079000AAE024FFFDA3E034FFFE9000AAEDF0EEA3F09000A0E070449035
:2018C00000AEE0F514A3E0F5159000AAE0FAA3E0FBC0078A068B071ABAFF011BC3E5149E20
:2018E000E5159FD007504FEF60047E3080027E208E82C007C003C002121020D002D003D0A5
:201900000780CE9000AAE0FEA3E0FF9000AEE0F514A3E0F515C3E5149EE5159F500F900042
:20192000AAEEC39514F0EF9515A3F080119000AAE4F0A3F080089000AAEAF0EBA3F09000AB
:20194000B7E0FEA3E0FF9000AEE0F514A3E0F515AA14AD15151474FFB514021515EA4D6014
:20196000449000A8E0B40100E433F09000A8E070130EBE00010F8E828F83E0C4540F90001F
:2019800090F0800E8E828F83E0FD53050F900090EDF0900090E0F582C007C00612105BD085
:2019A00006D00780AB9000A0E0700302112A9000AAE0FEA3E0FF8E038F051EBEFF011FEBBA
:2019C0004D700302112A758220C007C006121020D006D00780E08C8212102002112A9000FA
:0A19E00091E0FEA3E08E82F5832261
:0B1C87003C4E4F20464C4F41543E00A5
:1819EA00AA82AB83121A026003A380F8C3E5829AF582E5839BF5832207
:0D006400758116121A1EE58260030200610C
:1C1A020020F71430F6148883A88220F507E6A88375830022E280F7E49322E022F3
:041A1E0075820022AB
:00000001FF
